:020000040000FA
:040000004AEF00F0D3
:020004000000FA
:08000800002A020E0060006AEC
:04001000F292110057
:080018000050FF082BE000502E
:1000200001E014E13D0ECB6E01C050F05046504649
:100030005046504650C08CFF012A012A0E0E016224
:100040003AEF00F0000E016E3AEF00F0F40ECB6EC6
:1000500002C051F0514651465146514651C08CFFA5
:10006000022A022A0F0E02623AEF00F0010E026E1F
:100070003AEF00F09E921000B40E156E5E0E146EF4
:1000800000000000000000000000142EF9D7152E1B
:10009000F5D712000F0EC16E926A0F0E956E8C6A24
:1000A0009380D08EF28EF28CF292F288FF0ECA6E9E
:1000B0007A0ECB6E9F829F929D829E92200ED36E6F
:1000C000CA84FF0E006E000E016E010E026EFFD795
:020000040030CA
:0100010008F6
:010002001FDE
:010003001EDE
:010005008377
:010006008178
:010008000FE8
:01000900C036
:01000A000FE6
:01000B00E014
:01000C000FE4
:01000D0040B2
:00000001FF
