:020000040000FA
:0400000007EF00F016
:0A0008002782C0ED03F01EEF05F0A3
:1006000000040004010403050105020600060206B9
:100610000307010702080008020803090109030A89
:10062000000A020B000B010B030C010C020D000D64
:10063000020D030E010E030F000F020F0310011035
:100640000311001102120012011203000FC001F089
:1006500010C002F0FF0E046EA60E036E000E066EB2
:100660005A0E056EEFEC04F001C00FF002C010F05E
:100670005A0E0F24076E000E1020086E000E0A6E30
:10068000050E096E54EC04F007C019F008C01AF00A
:100690001ABE4FEF03F04DEF03F053EF03F0000EDF
:1006A0001A6E000E196E1ABE5FEF03F01A5009E1C0
:1006B000250E195CD8A05FEF03F061EF03F065EF42
:1006C00003F0000E1A6E240E196E1950020DF3502D
:1006D000010F116E11C0F6FF0800F5CFBEFF1950D3
:1006E000020DF3CF11F0010E11261150010F126E01
:1006F00012C0F6FF0800F5CF13F0133ABD501318DF
:10070000CF0B1318BD6E19C001F01AC002F0030E12
:10071000046E036839EC05F001C007F002C008F070
:10072000000E0A6E240E096E54EC04F007C015F09A
:1007300008C016F0000E16BEFF0E176E186E15C01C
:1007400011F016C012F017C013F018C014F0030E09
:10075000AFEF03F0D8901432133212321132E82E78
:10076000AAEF03F01150BB6E15C011F0030E111665
:10077000113ABA501118CF0B1118BA6E00001200BE
:100780000600F3CF1BF0F4CF1CF0F6CF1DF0F7CF2F
:100790001EF0F8CF1FF0F5CF20F0F2A2D2EF03F059
:1007A000D4EF03F0F1EF03F0F292DF0E00D000D0AF
:1007B000E82EFCD7000081A0E0EF03F0E2EF03F0A9
:1007C000E4EF03F046EF04F025502610D8B4EBEF29
:1007D00003F0EEEF03F0010EEFEF03F0000E256ED5
:1007E000266A9EA0F6EF03F0F8EF03F046EF04F060
:1007F0009E90FE0ECF6EF10ECE6E25502610D8B410
:1008000004EF04F006EF04F046EF04F021C001F01D
:1008100022C002F0000E046E050E036E39EC05F0E6
:10082000015023260250242224BE20EF04F024503D
:1008300009E15A0E235CD8A020EF04F022EF04F067
:100840002AEF04F0000E246E5A0E236E21682268EF
:1008500040EF04F024AE36EF04F0A70E235CFF0E49
:100860002458D8B036EF04F038EF04F040EF04F02D
:10087000FF0E246EA60E236E000E226E010E216E58
:1008800023C00FF024C010F026EC03F020C0F5FFC9
:100890001FC0F8FF1EC0F7FF1DC0F6FF1CC0F4FF0D
:1008A0001BC0F3FF27921100000E0C6E0ABE5DEF15
:1008B00004F05BEF04F063EF04F0096C0A1ED8B09B
:1008C0000A2A010E0C6E08BE6AEF04F068EF04F00D
:1008D00070EF04F0076C081ED8B0082A010E0C1A3D
:1008E000000E0E6E000E0D6E09500A10D8B47BEF8C
:1008F00004F07DEF04F0A5EF04F0010E0B6E85EF20
:1009000004F0D89009360A360B2A0AAE8AEF04F0B2
:100910008CEF04F081EF04F0D8900D360E360950BC
:10092000075C0A500858D8A098EF04F09AEF04F03A
:100930009FEF04F00950075E0A50085A0D80D890C6
:100940000A3209320B2E8CEF04F00C50D8B4ABEF06
:1009500004F0ADEF04F0B1EF04F00D6C0E1ED8B052
:100960000E2A0DC007F00EC008F01200D3508F0BF6
:100970001009D36E938094948C9ECD92300ECD123C
:10098000FE0ECF6EF10ECE6E9E909D80CD80949423
:1009900094929B0ECB6EBD50F00B0C09BD6E0B0EEE
:1009A000BE6EBD50CF0B1009BD6EBA50F00B0C09D6
:1009B000BA6E000EBB6ECF0EBA16CA50FC0B010900
:1009C000CA6ECA84F292F288F19CF28CF28E040E06
:1009D000BE6ECF0EBD16EBEF04F007EF00F0035034
:1009E000015C0250800A076E0450800A0758D8B094
:1009F000FCEF04F0FEEF04F004EF05F003C001F09B
:100A000004C002F01DEF05F00150055C0650800A9D
:100A1000076E0250800A0758D8B011EF05F013EFA7
:100A200005F019EF05F005C001F006C002F01DEF5A
:100A300005F001C001F002C002F01200980EF66E3F
:100A40000A0EF76E000EF86E00EE21F010EE04F0C4
:100A50000900F5CFEEFFE550E150FAE1266A256A7C
:100A600027902792000EF86E060EF76E0001B6EF83
:100A700004F001500302F3CF05F0F4CF06F001506B
:100A80000402F350062602500302F350062605C066
:0C0A900001F006C002F012000100A6FFF9
:020000040020DA
:08000000FFFFFFFFFFFFFFFF00
:020000040030CA
:0E000000FF081B1EFF8181FF0FC00FE00F40A5
:00000001FF
