:020000040000FA
:040000004CEF00F0D1
:060008006B828DED04F097
:100018006B80D8CF84F0E8CF85F0E0CF86F09EAC37
:1000280018EF00F01AEF00F044EF00F0C4500001A0
:10003800826FC350876F82C088F087510D5C696EEC
:1000480088510E586A6E24EC05F06ABE35EF00F050
:100058006A5009E10B0E695CD8A035EF00F037EF64
:1000680000F043EF00F00F0E00018715876F886BD3
:100078008739F00B8C6E87C00DF088C00EF09E9CFF
:1000880086C0E0FF85C0E8FF84C0D8FF6B901000F1
:04009800E6EF04F09B
:1006000000494E46494E49545900696E66696E6903
:100610007479004E414E00696E66006E616E000096
:10062000000E576E040E566EC5EC04F064BE22EF49
:1006300003F0E90E635C030E6458D8A022EF03F0C8
:1006400024EF03F034EF03F063C05BF064C05CF0B0
:10065000030E5E6EE80E5D6E95EC03F05B50300F9E
:10066000656E6550BDEC05F064BE40EF03F064506C
:1006700009E1650E635CD8A040EF03F042EF03F0A0
:100680005CEF03F0030E586EE80E576E63C055F032
:1006900064C056F0F7EC03F055C05BF056C05CF058
:1006A000000E5E6E640E5D6E95EC03F05B50300FD5
:1006B000656E6550BDEC05F064BE68EF03F06450F4
:1006C00009E10B0E635CD8A068EF03F06AEF03F05A
:1006D00084EF03F0000E586E640E576E63C055F041
:1006E00064C056F0F7EC03F055C05BF056C05CF008
:1006F000000E5E6E0A0E5D6E95EC03F05B50300FDF
:10070000656E6550BDEC05F063C055F064C056F0F1
:10071000000E586E0A0E576EF7EC03F05550300F6E
:10072000656E6550BDEC05F01200000E606E5EBE99
:100730009EEF03F09CEF03F0A4EF03F05D6C5E1EF0
:10074000D8B05E2A010E606E5CBEABEF03F0A9EF7D
:1007500003F0B1EF03F05B6C5C1ED8B05C2A010EB5
:10076000601A000E626E000E616E5D505E10D8B4AD
:10077000BCEF03F0BEEF03F0E6EF03F0010E5F6E97
:10078000C6EF03F0D8905D365E365F2A5EAECBEFE3
:1007900003F0CDEF03F0C2EF03F0D890613662367C
:1007A0005D505B5C5E505C58D8A0D9EF03F0DBEF86
:1007B00003F0E0EF03F05D505B5E5E505C5A6180D9
:1007C000D8905E325D325F2ECDEF03F06050D8B42A
:1007D000ECEF03F0EEEF03F0F2EF03F0616C621E5A
:1007E000D8B0622A61C05BF062C05CF01200000EFB
:1007F0005A6E56BE00EF04F0FEEF03F006EF04F071
:10080000556C561ED8B0562A010E5A6E58BE0DEFC2
:1008100004F00BEF04F011EF04F0576C581ED8B041
:10082000582A57505810D8B418EF04F01AEF04F0B3
:100830003EEF04F0010E596E22EF04F0D8905736C7
:100840005836592A58AE27EF04F029EF04F01EEF6E
:1008500004F05750555C58505658D8A032EF04F069
:1008600034EF04F038EF04F05750555E5850565AA4
:10087000D89058325732592E29EF04F05A50D8B434
:1008800044EF04F046EF04F04AEF04F0556C561EB6
:10089000D8B0562A55C055F056C056F012007AEC22
:1008A00005F0300EB1EC05F0130E00018B6FDCEC9F
:1008B00005F000018C6F3FEC05F06D0E1318D8A405
:1008C00064EF04F066EF04F075EF04F0310E1418D5
:1008D000D8A46DEF04F06FEF04F075EF04F0DFECD7
:1008E00005F005EC05F054EF04F06D0E1318D8A4D4
:1008F0007CEF04F07EEF04F054EF04F0320E141895
:10090000D8A485EF04F087EF04F054EF04F0DEEC98
:1009100005F071EF04F04CEF00F00600F2A293EF47
:1009200004F095EF04F0C3EF04F01A0E666EF80EB3
:10093000E82EFED7662EFCD700D00B4A0C2A0CBE40
:10094000ABEF04F0E80E0B5C030E0C58D8A0ABEF35
:1009500004F0ADEF04F0B1EF04F0000E0C6E000EE9
:100960000B6E0BC063F00CC064F010EC03F00F0EC4
:100970000B14676E686A67C066F00F0E66166638FD
:10098000F00B8C6EF2926B921100000E5A6E000EFC
:10099000596ED6EF04F0080EBDEC05F0200EBDEC4C
:1009A00005F0080EBDEC05F0594A5A2A5650595C1C
:1009B0005A50800A586E5750800A5858D8A0E3EF12
:1009C00004F0E5EF04F0CBEF04F012002E0EF66E0B
:1009D0000B0EF76E000EF86E00EE3BF010EE1AF004
:1009E0000900F5CFEEFFE550E150FAE100EE01F02D
:1009F0003A0EEE6AE806FDE16B906B92000EF86E1F
:100A0000060EF76E00014FEF04F0000E00018A6F32
:100A1000000E896F8951270FD96EDA6ADF6A894B18
:100A20008A2B8ABF1DEF05F08A5109E10A0E895D04
:100A3000D8A01DEF05F01FEF05F00AEF05F0000E3E
:100A4000126E000E116E12006ABE29EF05F02BEF38
:100A500005F031EF05F069C069F06AC06AF03EEF59
:100A600005F069C080F06AC081F00001801F811F1D
:100A7000804B812B80C069F081C06AF012008BC06E
:100A80008DF000018C2B8C05D96EDA6A8D2B8D05CB
:100A9000E16EE26ADFCFE7FFE750D8A452EF05F03E
:100AA00054EF05F041EF05F01200D08EF28EF28C7B
:100AB000F288F19CF2929E9C9D8C9F9CF294F28A0B
:100AC000F1949E909D809F909E929D829F92120095
:100AD00092680E0EC16EC08E070EC012000EC46E5C
:100AE000000EC36E010EC26E0E0EC16EAA0EC06E57
:100AF0009E9C1200D7EC05F0C8EC05F0A4EC05F0C4
:100B000055EC05F089EC05F0D1EC05F068EC05F04A
:100B10001200948C948EAC98B896AC94330EAF6E51
:100B2000AB8EAC8AAB889D8A9F8A9E9A1200040085
:100B3000050006000700080009000A000B000C0071
:100B40000D000E000F00E803030ECA12CA9CCA9AD9
:100B5000CA98CA963E0ECB6E9E929D829F92CA8480
:100B600012000001896FACA2B8EF05F0BAEF05F0F2
:100B7000B3EF05F089C0ADFF1200556EACA2C3EF14
:100B800005F0C5EF05F0BEEF05F055C0ADFF120052
:100B9000D3508F0B6009D36ED350FC0B0109D36E79
:100BA00012009494090EBD6E9E949F8412000F0E45
:100BB000956E000E8C6E1200270E120012001200AD
:020000040020DA
:08000000FFFFFFFFFFFFFFFF00
:020000040030CA
:0E000000FF881F00FF8181FF0FC00FE00F403F
:00000001FF
