:020000040000FA
:0400000036EF00F0E7
:060008004D8238ED04F00A
:100018004D80D8CF43F0E8CF44F0E0CF45F0D9CFBA
:1000280046F0DACF47F09EAA1CEF00F01EEF00F072
:100038002AEF00F0ABA223EF00F025EF00F028EF45
:1000480000F0AB980000AB8870EC04F047C0DAFF12
:1000580046C0D9FF45C0E0FF44C0E8FF43C0D8FF11
:080068004D90100007EF05F0B8
:100600000000000E386E36BE0AEF03F008EF03F06C
:1006100010EF03F0356C361ED8B0362A010E386E56
:1006200034BE17EF03F015EF03F01DEF03F0336C4A
:10063000341ED8B0342A010E381A000E3A6E000E5D
:10064000396E35503610D8B428EF03F02AEF03F096
:1006500052EF03F0010E376E32EF03F0D8903536CB
:100660003636372A36AE37EF03F039EF03F02EEF88
:1006700003F0D89039363A363550335C365034581A
:10068000D8A045EF03F047EF03F04CEF03F03550EF
:10069000335E3650345A3980D89036323532372E60
:1006A00039EF03F03850D8B458EF03F05AEF03F0A5
:1006B0005EEF03F0396C3A1ED8B03A2A39C033F0F5
:1006C0003AC034F01200000E326E2EBE6CEF03F012
:1006D0006AEF03F072EF03F02D6C2E1ED8B02E2AB5
:1006E000010E326E30BE79EF03F077EF03F07DEF4D
:1006F00003F02F6C301ED8B0302A2F503010D8B4F1
:1007000084EF03F086EF03F0AAEF03F0010E316EE1
:100710008EEF03F0D8902F363036312A30AE93EF7B
:1007200003F095EF03F08AEF03F02F502D5C30506B
:100730002E58D8A09EEF03F0A0EF03F0A4EF03F033
:100740002F502D5E30502E5AD89030322F32312E0D
:1007500095EF03F03250D8B4B0EF03F0B2EF03F0EE
:10076000B6EF03F02D6C2E1ED8B02E2A2DC02DF022
:100770002EC02EF01200000E2F6E030E2E6E9AEC7D
:1007800004F03BC033F03CC034F0000E366E640E13
:10079000356E01EC03F03350300F3D6E3D5033ECBD
:1007A00005F0000E306E640E2F6E3BC02DF03CC085
:1007B0002EF063EC03F02DC033F02EC034F0000EA9
:1007C000366E0A0E356E01EC03F03350300F3D6E7D
:1007D0003D5033EC05F03BC02DF03CC02EF0000E38
:1007E000306E0A0E2F6E63EC03F02D50300F3D6E0D
:1007F0003D5033EC05F01200EEEC04F0300E12EC3C
:1008000005F0190E4A6E59EC05F04B6ED9EC04F068
:100810006D0E1918D8A40FEF04F011EF04F020EFBB
:1008200004F0310E1A18D8A418EF04F01AEF04F0EF
:1008300020EF04F05CEC05F0BBEC04F001EF04F0F9
:100840006D0E1918D8A427EF04F029EF04F001EF7A
:1008500004F0320E1A18D8A430EF04F032EF04F08E
:1008600001EF04F05BEC05F01CEF04F036EF00F054
:1008700006001A0E3E6EF80EE82EFED73E2EFCD76E
:1008800000D0F2A246EF04F048EF04F06EEF04F05F
:10089000034A042A04BE56EF04F0E80E035C030E7C
:1008A0000458D8A056EF04F058EF04F05CEF04F0C1
:1008B000000E046E000E036E03C03BF004C03CF05B
:1008C000BBEC03F00F0E03143F6E406A3FC03EF0D6
:1008D0000F0E3E163E38F00B8C6EF2924D921100C8
:1008E000AECF42F00D0E4218D8A479EF04F07BEFA2
:1008F00004F07EEF04F00A0E28EC05F002BE8CEF47
:1009000004F0025007E10A0E015CD8B08AEF04F04F
:100910008CEF04F099EF04F00150050FD96EDA6AFC
:1009200042C0DFFF014A022A0150050FD96EDA6A80
:10093000DF6A1200000E326E000E316EABEF04F073
:10094000080E33EC05F0200E33EC05F0080E33EC06
:1009500005F0314A322A2E50315C3250800A306E16
:100960002F50800A3058D8A0B8EF04F0BAEF04F046
:10097000A0EF04F01200000E496E000E486E4850C1
:10098000050FD96EDA6ADF6A484A492A49BED2EFB2
:1009900004F0495009E10A0E485CD8A0D2EF04F0F7
:1009A000D4EF04F0BFEF04F0000E026E000E016EF3
:1009B00012004AC04CF04B2A4B04D96EDA6A4C2A1A
:1009C0004C04E16EE26ADFCFE7FFE750D8A4EBEF1B
:1009D00004F0EDEF04F0DBEF04F0120054EC05F04E
:1009E0003EEC05F047EC05F0FBEC04F04EEC05F0B6
:1009F0001DEC05F01200948C948EAC98B896AC94D3
:100A0000330EAF6EAB8EAC8AAB989D9A120000EE9F
:100A100001F02C0EEE6AE806FDE14D904D920001CA
:100A2000FCEF03F0486EACA218EF05F01AEF05F0EA
:100A300013EF05F048C0ADFF120092680E0EC16EB4
:100A4000C08E070EC012000EC46E000EC36E1200E0
:100A5000416EACA22EEF05F030EF05F029EF05F066
:100A600041C0ADFF12002D6EACA239EF05F03BEF97
:100A700005F034EF05F02DC0ADFF1200D3508F0B01
:100A80006009D36ED350FC0B0109D36E1200D08ED7
:100A9000F28EF28CF288F19CF29212009494090E7C
:100AA000BD6E9E949F8412000F0E956E000E8C6E8C
:0A0AB0001200050E120012001200E1
:020000040020DA
:08000000FFFFFFFFFFFFFFFF00
:020000040030CA
:0E000000FF881F00FF8181FF0FC00FE00F403F
:00000001FF
