:020000040000FA
:04000000BBEF00F062
:0600080078825EED15F0A8
:100018007880D8CFA8F0E8CFA9F0E0CFAAF09EA2C8
:1000280018EF00F01AEF00F01BEF00F09E929EA070
:1000380020EF00F022EF00F027EF00F09E90FB0E7B
:10004800D76E1E0ED66EF2A42CEF00F02EEF00F045
:1000580037EF00F0F294FC0ED76E2F0ED66E00012B
:10006800C939F00B8C6E9EAC3CEF00F03EEF00F00F
:10007800B3EF00F09E9CC4500001A66FC350B16F4F
:10008800A6C0B2F0B151C75D806FB251C859816F37
:10009800ABEC18F080C0AFF081C0B0F00001B0BF89
:1000A8005FEF00F0B05109E1150EAF5DD8A05FEF2A
:1000B80000F061EF00F0B2EF00F0040EC919CA11A8
:1000C800D8A469EF00F06BEF00F0B2EF00F0B1C018
:1000D80080F0B2C081F0000E81BFFF0E826F836F87
:1000E800B40E846F000E856F000E866F000E876F4A
:1000F8007FEC16F080C08CF081C08DF082C08EF04D
:1001080083C08FF0FF0E0001906F030E916F000EF9
:10011800926F000E936FB9EC14F08CC0ABF08DC0E9
:10012800ACF08EC0ADF08FC0AEF0ABC0CBF0ACC0C1
:10013800CCF00001A60ECB27FF0ECC23CBC0A0F03D
:10014800CCC0A1F0D8EC15F0B1C0C7F0B2C0C8F06F
:10015800CBC08EF0CCC08FF048EC10F0C282AAC0A1
:10016800E0FFA9C0E8FFA8C0D8FF789010001FEFF3
:0201780017F07E
:10060000003031323334353637383941424344458E
:100610004600494E46494E49545900696E66696E16
:10062000697479006572726F72004E414E00696E96
:0D06300066006E616E006D31006D320000DD
:10063E00000E256E000E246E1B501C10D8B42AEF2F
:10064E0003F02CEF03F035EF03F01BC0D9FF1CC0F5
:10065E00DAFF1AC0DFFF35EF03F01A2A1A50D96EEF
:10066E00DA6A200EDE18D8B43FEF03F042EF03F043
:10067E00010E43EF03F0000E2C6E2D6A2C502D1040
:10068E00D8A44CEF03F04EEF03F034EF03F01A5002
:10069E00D96EDA6ADF501E6E1E502C6E2D6A2CC07B
:1006AE001FF0F70E1F26040E1F6460EF03F062EFBB
:1006BE0003F034EF03F0296A2D0E2C182D10D8A458
:1006CE006BEF03F06DEF03F072EF03F0010E296E86
:1006DE001A2A7EEF03F02B0E2C182D10D8A47AEFC9
:1006EE0003F07CEF03F07EEF03F06FEF03F0326A5E
:1006FE0082EF03F0322A1A503224D96EDA6ADF50B2
:10070E00D8B48CEF03F08EEF03F0B8EF03F01A506D
:10071E003224D96EDA6ADF501E6E32501B0F1F6EF6
:10072E001FC0F6FF0800F5501E18D8B4A1EF03F055
:10073E00A3EF03F081EF03F01A503224D96EDA6A78
:10074E00DF501E6E3250120F1F6E1FC0F6FF0800D4
:10075E00F5501E18D8B4B6EF03F0B8EF03F081EFE2
:10076E0003F0020E3264BEEF03F0C0EF03F0E5EFCC
:10077E0003F0000E2E6E000E2F6E800E306E7F0E6A
:10078E00316E1B501C10D8B4CFEF03F0D1EF03F035
:10079E0075EF0AF0080E3218D8B4D8EF03F0DAEF7E
:1007AE0003F0DCEF03F0030E326E1A5032241BC03E
:1007BE00D9FF1CC0DAFFDF6E75EF0AF0326AE9EF7F
:1007CE0003F0322A1A503224D96EDA6ADF50D8B4C6
:1007DE00F3EF03F0F5EF03F01FEF04F01A5032249D
:1007EE00D96EDA6ADF501E6E3250320F1F6E1FC086
:1007FE00F6FF0800F5501E18D8B408EF04F00AEF03
:10080E0004F0E8EF03F01A503224D96EDA6ADF50A2
:10081E001E6E32502A0F1F6E1FC0F6FF0800F550D5
:10082E001E18D8B41DEF04F01FEF04F0E8EF03F02C
:10083E00030E3218D8A426EF04F028EF04F07FEF51
:10084E0004F0380E016E5AEC19F001C02EF002C001
:10085E002FF003C030F004C031F01B501C10D8B480
:10086E003BEF04F03DEF04F075EF0AF032501A261C
:10087E001A50D96EDA6A280EDE18D8A449EF04F0A1
:10088E004BEF04F077EF04F0326A4FEF04F0322AA8
:10089E001A503224D96EDA6ADF50D8B459EF04F008
:1008AE005BEF04F068EF04F01A503224D96EDA6A66
:1008BE00290EDE18D8A466EF04F068EF04F04EEFB0
:1008CE0004F01A503224D96EDA6A290EDE18D8A432
:1008DE0073EF04F075EF04F077EF04F032281A2668
:1008EE001BC0D9FF1CC0DAFF1AC0DFFF75EF0AF07C
:1008FE00000E2D6E000E2C6E000E2E6E000E2F6E44
:10090E00000E306E000E316E266A276A000E2B6EB8
:10091E00000E2A6E326A95EF04F0322A1A503224F3
:10092E00D96EDA6A300EDE18D8B4A0EF04F0A2EF5A
:10093E0004F094EF04F03250D8B4A8EF04F0AAEF0C
:10094E0004F005EF08F01A503224D96EDA6A780EE8
:10095E00DE18D8B4B5EF04F0B7EF04F0C4EF04F02E
:10096E001A503224D96EDA6A580EDE18D8A4C2EFA5
:10097E0004F0C4EF04F005EF08F01A503224D96EDB
:10098E00DA6A010ED926DF501E6E1E50016E026A03
:10099E007FEC17F001500210D8A4D8EF04F0DAEF74
:1009AE0004F0EBEF04F01A503224D96EDA6A010E1D
:1009BE00D9262E0EDE18D8B4E7EF04F0E9EF04F0D6
:1009CE00EBEF04F030EF07F032C026F0322A1A5067
:1009DE003224D96EDA6A300EDE18D8B4F9EF04F08C
:1009EE00FBEF04F0EDEF04F01A503224D96EDA6A00
:1009FE00700EDE18D8B406EF05F008EF05F05EEFC6
:100A0E0006F01A503224D96EDA6A500EDE18D8A4C7
:100A1E0013EF05F015EF05F017EF05F05EEF06F09A
:100A2E001A503224D96EDA6A2E0EDE18D8A422EFAE
:100A3E0005F024EF05F02AEF05F0298832C027F0E3
:100A4E00322A5EEF06F01A503224D96EDA6ADF507F
:100A5E001E6E1E50016E026A7FEC17F001500210DE
:100A6E00D8B43CEF05F03EEF05F030EF07F0286A02
:100A7E001A503224D96EDA6ADF501E6E1E50016E85
:100A8E00026A0DEC19F001500210D8B451EF05F0C6
:100A9E0053EF05F05CEF05F01A503224D96EDA6A86
:100AAE00DF50D00F286E6AEF05F01A503224D96E3F
:100ABE00DA6ADF501E6E1E50016E026ADFEC18F00D
:100ACE000150C90F286E2DBE78EF05F02D5007E1AD
:100ADE00080E2C5CD8B076EF05F078EF05F097EFA6
:100AEE0005F02C5007081E6ED8901E36D8901E3674
:100AFE0028C01FF0206A216A226A1E2A8CEF05F098
:100B0E00D8901F362036213622361E2E87EF05F05E
:100B1E001F502E1220502F122150301222503112FF
:100B2E002C4A2D2A040E2A26000E2B22322AFBEFE7
:100B3E0004F01A503224D96EDA6A300EDE18D8A4B8
:100B4E00ABEF05F0ADEF05F0BCEF05F02C502D101E
:100B5E00D8A4B4EF05F0B6EF05F0BCEF05F0FC0E2F
:100B6E002A26FF0E2B225DEF06F01A503224D96E84
:100B7E00DA6ADF501E6E1E50016E026A7FEC17F0AD
:100B8E0001500210D8B4CEEF05F0D0EF05F02DEFE6
:100B9E0006F0286A1A503224D96EDA6ADF501E6EB9
:100BAE001E50016E026A0DEC19F001500210D8B4FD
:100BBE00E3EF05F0E5EF05F0EEEF05F01A50322405
:100BCE00D96EDA6ADF50D00F286EFCEF05F01A509E
:100BDE003224D96EDA6ADF501E6E1E50016E026A22
:100BEE00DFEC18F00150C90F286E2DBE0AEF06F08B
:100BFE002D5007E1080E2C5CD8B008EF06F00AEF76
:100C0E0006F029EF06F02C5007081E6ED8901E36FF
:100C1E00D8901E3628C01FF0206A216A226A1E2A2A
:100C2E001EEF06F0D8901F362036213622361E2EA5
:100C3E0019EF06F01F502E1220502F122150301295
:100C4E00225031122C4A2D2A5DEF06F032501E6EC4
:100C5E001F6A2750206E216A010E2026000E2122C7
:100C6E001E50201807E11F502118D8A441EF06F09E
:100C7E0043EF06F065EF06F027501E6E1F6A2650F2
:100C8E00206E216A010E2026000E21221E502018F1
:100C9E0007E11F502118D8A457EF06F059EF06F0C0
:100CAE0065EF06F026C032F030EF07F0322A29B891
:100CBE0063EF06F065EF06F0A0EF05F032501A264E
:100CCE00326A1A50D96EDA6A700EDE18D8B472EF24
:100CDE0006F074EF06F082EF06F01A50D96EDA6A5B
:100CEE00500EDE18D8B47EEF06F080EF06F082EFDD
:100CFE0006F030EF07F0322A1A50D96EDA6A010E7A
:100D0E00D9262B0EDE18D8A48FEF06F091EF06F041
:100D1E0094EF06F0322AA4EF06F01A50D96EDA6A72
:100D2E00010ED9262D0EDE18D8A4A0EF06F0A2EFE4
:100D3E0006F0A4EF06F02986322A1A503224D96E14
:100D4E00DA6ADF501E6E1E50016E026A0DEC19F04B
:100D5E0001500210D8A4B6EF06F0B8EF06F0BBEFC4
:100D6E0006F0326A30EF07F032501A26326AC1EFBF
:100D7E0006F0322A1A503224D96EDA6A300EDE1894
:100D8E00D8B4CCEF06F0CEEF06F0C0EF06F0000EB2
:100D9E002D6E000E2C6EFBEF06F03250D8B4DAEF4B
:100DAE0006F0DCEF06F0EAEF06F02CC001F02DC0E5
:100DBE0002F0000E046E0A0E036E36EC19F001C03E
:100DCE002CF002C02DF01A503224D96EDA6ADF50A0
:100DDE001E6ED00E1E241F6E206AFF0E20221F5084
:100DEE002C2620502D22322A1A503224D96EDA6A3D
:100DFE00DF501E6E1E50016E026A0DEC19F001508E
:100E0E000210D8A40DEF07F00FEF07F0D4EF06F0A5
:100E1E003250D8A415EF07F017EF07F021EF07F0C7
:100E2E00000E1A6E000E1B6E000E1C6E000E1D6E56
:100E3E00ABEF0AF029A626EF07F028EF07F02CEF0C
:100E4E0007F02C6C2D1ED8B02D2A2C502A262D5092
:100E5E002B221B501C10D8B437EF07F039EF07F0D8
:100E6E0040EF07F01A5032241BC0D9FF1CC0DAFF26
:100E7E00DF6E2E502F1030103110D8A449EF07F02E
:100E8E004BEF07F055EF07F0000E1A6E000E1B6EBB
:100E9E00000E1C6E000E1D6EABEF0AF0FF0E2E1430
:100EAE001E6E000E2F141F6E000E3014206E000EDC
:100EBE003114216E215020101F1009E1810E1E5C8D
:100ECE00D8A06CEF07F06EEF07F080EF07F0000E82
:100EDE002E26010E2F22000E3022000E312280EF20
:100EEE0007F0D8902E362F36303631362A06D8A057
:100EFE002B0631AE85EF07F087EF07F078EF07F09E
:100F0E002BAE93EF07F0830E2A5CFF0E2B58D8B052
:100F1E0093EF07F095EF07F0A1EF07F0FF0E2B6EA2
:100F2E00810E2A6E000E2E6E000E2F6E000E306E8B
:100F3E00000E316E810E2A1808E12B28D8B4AAEFC4
:100F4E0007F0ACEF07F0B4EF07F0D8902E362F363F
:100F5E00303631362A06D8A02B062BBEC0EF07F04E
:100F6E002B5009E1800E2A5CD8A0C0EF07F0C2EF2B
:100F7E0007F0D4EF07F0000E2E6E000E2F6E000E4F
:100F8E00306E000E316E000E2B6E800E2A6E000E2D
:100F9E00256E220E246E75EF0AF0090E1E6ED89085
:100FAE00313230322F322E321E2ED6EF07F0FF0E98
:100FBE002E16FF0E2F167F0E3016000E31167F0ED8
:100FCE002A241E6E000E2B201F6EFF0E1E14206E86
:100FDE00216A226A236A170ED890203621362236CD
:100FEE002336E82EF3EF07F020502E1221502F1249
:100FFE00225030122350311275EF0AF029B80AEF41
:10100E0008F00CEF08F01CEF08F01A50D96EDA6AEF
:10101E002E0EDE18D8A416EF08F018EF08F01CEF0D
:10102E0008F029881A2A05EF08F01A50D96EDA6AE4
:10103E00DF501E6E1E50016E026A0DEC19F001504B
:10104E000210D8A42DEF08F02FEF08F031EF08F0C2
:10105E007DEF08F02982090E2C182D10D8B43AEF26
:10106E0008F03CEF08F071EF08F029A841EF08F006
:10107E0043EF08F046EF08F02A06D8A02B062C4ABC
:10108E002D2A2EC001F02FC002F030C003F031C067
:10109E0004F00A0E056E000E066E000E076E000EB0
:1010AE00086EEAEC16F001C02EF002C02FF003C05D
:1010BE0030F004C031F01A50D96EDA6ADF501E6E6D
:1010CE00D00E1E261E502E26000E2F22302231222A
:1010DE007AEF08F029B876EF08F078EF08F07AEF9B
:1010EE0008F02A4A2B2A1A2A05EF08F0000E2D6E58
:1010FE00000E2C6E1A50D96EDA6A650EDE18D8B450
:10110E008BEF08F08DEF08F099EF08F01A50D96EBA
:10111E00DA6A450EDE18D8A497EF08F099EF08F0BA
:10112E0013EF09F01A2A1A50D96EDA6A2D0EDE184C
:10113E00D8A4A4EF08F0A6EF08F0AAEF08F02986CD
:10114E001A2AB7EF08F01A50D96EDA6A2B0EDE188B
:10115E00D8A4B4EF08F0B6EF08F0B7EF08F01A2AEB
:10116E001A50D96EDA6A300EDE18D8B4C1EF08F014
:10117E00C3EF08F0B6EF08F0286ADEEF08F01A5059
:10118E00D96EDA6ADF501E6ED00E1E260A0E2C02A3
:10119E00F3CF1FF0F4CF20F02D02F35020261E5077
:1011AE001F242C6E000E20202D6E1A2A282A1A506B
:1011BE00D96EDA6ADF501E6E1E50016E026A0DEC99
:1011CE0019F001500210D8A4EFEF08F0F1EF08F07B
:1011DE00C6EF08F02850D8A4F7EF08F0F9EF08F0A2
:1011EE0008EF09F01A50D96EDA6AFF0ED926300EC2
:1011FE00DE18D8B405EF09F007EF09F008EF09F093
:10120E001A0629A60DEF09F00FEF09F013EF09F0FA
:10121E002C6C2D1ED8B02D2A2C502A262D502B2268
:10122E001B501C10D8B41EEF09F020EF09F02DEF63
:10123E0009F029A225EF09F027EF09F02DEF09F0AB
:10124E001BC0D9FF1CC0DAFF1AC0DFFF2EC001F091
:10125E002FC002F030C003F031C004F0000E6EEC6F
:10126E000FF001C02EF002C02FF003C030F004C00A
:10127E0031F02EC001F02FC002F030C003F031C0AB
:10128E0004F0000E056E000E066E000E076E000EC8
:10129E00086E11EC14F0D8A057EF09F059EF09F0D1
:1012AE0063EF09F0000E1A6E000E1B6E000E1C6E20
:1012BE00000E1D6EABEF0AF02BBE6AEF09F068EF61
:1012CE0009F0F8EF09F02A6C2B1ED8B02B2A8EEFFE
:1012DE0009F02EC001F02FC002F030C003F031C073
:1012EE0004F0F90E056E020E066E150E076E500E08
:1012FE00086EBFEC0CF001C02EF002C02FF003C040
:10130E0030F004C031F0F60E2A26FF0E2B222BBE33
:10131E009CEF09F02B5007E10A0E2A5CD8B09AEF29
:10132E0009F09CEF09F070EF09F0BBEF09F02EC049
:10133E0001F02FC002F030C003F031C004F0000EF7
:10134E00056E000E066E200E076E410E086EBFEC87
:10135E000CF001C02EF002C02FF003C030F004C01C
:10136E0031F02A06D8A02B062A502B10D8A4C2EF93
:10137E0009F0C4EF09F09EEF09F02EC001F02FC066
:10138E0002F030C003F031C004F0000E056E000E06
:10139E00066E800E076E000E086E95EC11F0D8B03A
:1013AE00DBEF09F0DDEF09F075EF0AF029A0E2EFAF
:1013BE0009F0E4EF09F0EEEF09F0000E1A6E000EE0
:1013CE001B6E800E1C6E800E1D6EABEF0AF0000EB3
:1013DE001A6E000E1B6E800E1C6E000E1D6EABEF95
:1013EE000AF02BBE03EF0AF02B5008E12A04D8A016
:1013FE0003EF0AF005EF0AF075EF0AF025EF0AF099
:10140E002EC001F02FC002F030C003F031C004F046
:10141E00F90E056E020E066E150E076E500E086E54
:10142E00ACEC0AF001C02EF002C02FF003C030F079
:10143E0004C031F0F60E2A26FF0E2B222B5007E1A8
:10144E000A0E2A5CD8B02EEF0AF030EF0AF007EF42
:10145E000AF04FEF0AF02EC001F02FC002F030C09C
:10146E0003F031C004F0000E056E000E066E200E65
:10147E00076E410E086EACEC0AF001C02EF002C0F1
:10148E002FF003C030F004C031F02A06D8A02B068E
:10149E002A502B10D8A456EF0AF058EF0AF032EF6C
:1014AE000AF0FF0E016EFF0E026E7F0E036E7F0EB0
:1014BE00046E2EC005F02FC006F030C007F031C00C
:1014CE0008F095EC11F0D8B06FEF0AF071EF0AF05A
:1014DE0075EF0AF0000E256E220E246E2450251094
:1014EE00D8B47CEF0AF07EEF0AF08AEF0AF024C03F
:1014FE0048F025C049F0000E2E6E000E2F6E800EA5
:10150E00306E7F0E316E29A08FEF0AF091EF0AF048
:10151E00A3EF0AF02EC001F02FC002F030C003F08E
:10152E0031C004F08FEC18F001C02EF002C02FF085
:10153E0003C030F004C031F02EC01AF02FC01BF0E3
:10154E0030C01CF031C01DF012000450800B0D6E27
:10155E0004500424136E03AEB7EF0AF0B9EF0AF08D
:10156E00BAEF0AF013801350D8B4C0EF0AF0C2EFEE
:10157E000AF0D5EF0AF01328D8A4C8EF0AF0CAEF84
:10158E000AF0D2EF0AF0000E016E000E026E000E8F
:10159E00036E000E046E038EDDEF0AF0000E016E78
:1015AE00000E026E000E036E000E046E0850800BCD
:1015BE000D1A08500824126E07AEE8EF0AF0EAEF93
:1015CE000AF0EBEF0AF012801250D8B4F1EF0AF0E5
:1015DE00F3EF0AF006EF0BF01228D8A4F9EF0AF099
:1015EE00FBEF0AF003EF0BF0000E056E000E066E19
:1015FE00000E076E000E086E078E0EEF0BF0000E3B
:10160E00056E000E066E000E076E000E086E12506E
:10161E00D8B414EF0BF016EF0BF01EEF0BF01350C7
:10162E00D8A41CEF0BF01EEF0BF028EF0BF0000E02
:10163E00016E000E026E000E036E000E046EBEEF03
:10164E000CF007500102F3CF18F0F4CF19F0185038
:10165E000E6E0F6A106A116A1950146E156A166AA8
:10166E00176A06500202F3CF18F0F4CF19F0185093
:10167E000E26000E0F221022112219501426000ED3
:10168E0015221622172205500302F3CF18F0F4CFBD
:10169E0019F018500E26000E0F221022112219508A
:1016AE001426000E15221622172210C011F00FC09C
:1016BE0010F00EC00FF00E6A05500202F3CF18F0B4
:1016CE00F4CF19F018500E2619500F22000E1022CA
:1016DE00000E112206500102F3CF18F0F4CF19F0CC
:1016EE0018500E2619500F22000E1022000E112235
:1016FE0010C011F00FC010F00EC00FF00E6A0550A2
:10170E000102F3CF18F0F4CF19F018500E2619502D
:10171E000F22000E1022000E112207500202F3CFEC
:10172E0018F0F4CF19F01850142619501522000E87
:10173E001622000E172206500302F3CF18F0F4CF34
:10174E0019F01850142619501522000E1622000EEC
:10175E00172207500302F3CF18F0F4CF19F01850E8
:10176E00096E19500A6E0B6A0C6A0BC00CF00AC097
:10177E000BF009C00AF0096A095014260A50152206
:10178E000B5016220C5017220EC009F00FC00AF093
:10179E0010C00BF011C00CF0190EDBEF0BF0D8904F
:1017AE000C320B320A320932E82ED6EF0BF009500A
:1017BE0014260A5015220B5016220C50172210C058
:1017CE0011F00FC010F00EC00FF00E6A125013C0C1
:1017DE0009F00A6A0926000E0A22820E0924186EE2
:1017EE00FF0E0A20196E11EF0CF0D8901436153634
:1017FE001636173611AE06EF0CF008EF0CF009EFA7
:10180E000CF01480D8900E360F361036113618069E
:10181E00D8A0190616AE16EF0CF018EF0CF0FCEF70
:10182E000BF0126A11AE1EEF0CF020EF0CF044EF2D
:10183E000CF0FF0E0E14096EFF0E0F140A6EFF0E43
:10184E0010140B6E7F0E11140C6E09500A100B1033
:10185E000C10D8B435EF0CF037EF0CF03BEF0CF06A
:10186E00010E126E44EF0CF014A040EF0CF042EF9C
:10187E000CF044EF0CF037EF0CF01250D8B44AEFE6
:10188E000CF04CEF0CF070EF0CF0010E1426000E65
:10189E0015221622172217A057EF0CF059EF0CF055
:1018AE0070EF0CF014C009F015C00AF016C00BF062
:1018BE0017C00CF00C340C320B320A32093209C04C
:1018CE0014F00AC015F00BC016F00CC017F0184A31
:1018DE00192A19BE7BEF0CF0195008E11828D8A070
:1018EE007BEF0CF07DEF0CF087EF0CF0000E146E1A
:1018FE00000E156E800E166E7F0E176EB4EF0CF086
:10190E0019BE94EF0CF0195006E11804D8B092EFFE
:10191E000CF094EF0CF09FEF0CF0000E146E000E16
:10192E00156E000E166E000E176E0D6AB4EF0CF0EB
:10193E0018C013F0FF0E1416FF0E15167F0E161696
:10194E00000E171613A0AEEF0CF0B0EF0CF0B1EFC7
:10195E000CF0168ED8901330176E0D50171214C04F
:10196E0001F015C002F016C003F017C004F012000B
:10197E000450800B116E04500424186E03AECAEF8F
:10198E000CF0CCEF0CF0CDEF0CF018801850D8B452
:10199E00D3EF0CF0D5EF0CF0E9EF0CF01828D8A42B
:1019AE00DBEF0CF0DDEF0CF0E5EF0CF0000E016E4E
:1019BE00000E026E000E036E000E046E038E046A9D
:1019CE00F1EF0CF0000E016E000E026E000E036EB3
:1019DE00000E046E0850800B111A08500824196E60
:1019EE0007AEFCEF0CF0FEEF0CF0FFEF0CF01980E1
:1019FE001950D8B405EF0DF007EF0DF01BEF0DF0F9
:101A0E001928D8A40DEF0DF00FEF0DF017EF0DF014
:101A1E00000E056E000E066E000E076E000E086EAE
:101A2E00078E086A23EF0DF0000E056E000E066E8F
:101A3E00000E076E000E086E0550061007100810F7
:101A4E00D8A42CEF0DF02EEF0DF046EF0DF0000E9A
:101A5E00016E000E026E000E036E000E046E800EFE
:101A6E0003127F0E04121150041201C001F002C0C5
:101A7E0002F003C003F004C004F086EF0EF018501D
:101A8E00D8A44CEF0DF04EEF0DF058EF0DF0000E08
:101A9E00016E000E026E000E036E000E046E86EFD7
:101AAE000EF0195018C009F00A6A095E000E0A5AA3
:101ABE007F0E0924126E000E0A20136E01C00DF067
:101ACE0002C00EF003C00FF004C010F0000E016E45
:101ADE00000E026E000E036E000E046E000E146EEB
:101AEE00000E156E000E166E000E176E196AB8EF08
:101AFE000DF01950D8B486EF0DF088EF0DF09FEF72
:101B0E000DF0D8900D360E360F361036D8900136B1
:101B1E0002360336043617AE97EF0DF099EF0DF03F
:101B2E009AEF0DF00180D89014361536163617360A
:101B3E0005500D5C06500E5807500F58085010589F
:101B4E00D8A0ACEF0DF0AEEF0DF0B7EF0DF0178C97
:101B5E0005500D5E06500E5A07500F5A0850105A77
:101B6E00192A190E1964BEEF0DF0C0EF0DF080EFBB
:101B7E000DF00D500E100F101010D8B4C9EF0DF05F
:101B8E00CBEF0DF0E3EF0DF01480E3EF0DF0D890F6
:101B9E00013602360336043617AED8EF0DF0DAEF03
:101BAE000DF0DBEF0DF00180D89014361536163699
:101BBE0017361206D8A0130603AEE8EF0DF0EAEFC3
:101BCE000DF0CEEF0DF0196A17AEF0EF0DF0F2EF4B
:101BDE000DF016EF0EF0FF0E1414096EFF0E151415
:101BEE000A6EFF0E16140B6E7F0E17140C6E095034
:101BFE000A100B100C10D8B407EF0EF009EF0EF010
:101C0E000DEF0EF0010E196E16EF0EF001A012EF91
:101C1E000EF014EF0EF016EF0EF009EF0EF0195055
:101C2E00D8B41CEF0EF01EEF0EF042EF0EF0010EC8
:101C3E000126000E02220322042204A029EF0EF038
:101C4E002BEF0EF042EF0EF001C009F002C00AF0C9
:101C5E0003C00BF004C00CF00C340C320B320A3201
:101C6E00093209C001F00AC002F00BC003F00CC02B
:101C7E0004F0124A132A13BE4DEF0EF0135008E172
:101C8E001228D8A04DEF0EF04FEF0EF05AEF0EF0D7
:101C9E00000E136E1268000E016E000E026E000E24
:101CAE00036E000E046E13BE67EF0EF0135006E1C6
:101CBE001204D8B065EF0EF067EF0EF074EF0EF071
:101CCE00000E136E000E126E000E016E000E026EEE
:101CDE00000E036E000E046E116A12C018F018A0EA
:101CEE007BEF0EF07DEF0EF080EF0EF0038E81EFA6
:101CFE000EF0039ED8901830046E3AEF0DF01200DD
:101D0E00AECF3FF03F509CEC19F00D0E3F18D8A40B
:101D1E0093EF0EF095EF0EF042EF0FF00A0E9CECE3
:101D2E0019F05A0E016EF6EC18F00001C951CA11E5
:101D3E00D8A4A4EF0EF0A6EF0EF0D2EF0EF05A0ECE
:101D4E00016E360E026E50EC17F001500210D8A440
:101D5E00B3EF0EF0B5EF0EF0BCEF0EF0000E00017B
:101D6E00CA6F040EC96F3AEF0FF05A0E016E390E9C
:101D7E00026E50EC17F001500210D8A4C9EF0EF00D
:101D8E00CBEF0EF03AEF0FF0000E0001CA6F050E0A
:101D9E00C96F3AEF0FF0040EC919CA11D8A4DAEFC1
:101DAE000EF0DCEF0EF0E3EF0EF0000E0001CA6F46
:101DBE00000EC96F3AEF0FF0050EC919CA11D8A45B
:101DCE00EBEF0EF0EDEF0EF03AEF0FF0000E1B6E94
:101DDE00000E1C6E5A0E1A6E1FEC03F01AC033F072
:101DEE001BC034F01CC035F01DC036F012EC11F0E3
:101DFE0033C03DF034C03EF03EBE11EF0FF03E500A
:101E0E0007E15B0E3D5CD8B00FEF0FF011EF0FF056
:101E1E001FEF0FF03EAE1DEF0FF0A60E3D5CFF0E56
:101E2E003E58D8B01DEF0FF01FEF0FF02EEF0FF052
:101E3E00240E026E34EC18F0000E0001CA6F000E74
:101E4E00C96F000E226E000E216E11EC16F03DC011
:101E5E00CBF03EC0CCF0CBC021F0CCC022F011ECC8
:101E6E0016F0DCEF0EF055EC18F00001C939F00B4E
:101E7E008C6E6DEF0FF07F0E3F18D8A449EF0FF068
:101E8E004BEF0FF055EF0FF04A06D8A04B064A5015
:101E9E005A0FD96EDA6ADF6A6DEF0FF04BBE63EF41
:101EAE000FF04B5007E1120E4A5CD8B061EF0FF005
:101EBE0063EF0FF06DEF0FF04A505A0FD96EDA6ADA
:101ECE003FC0DFFF4A4A4B2A4EEF0FF01200096E59
:101EDE000950D8B475EF0FF077EF0FF099EF0FF0C0
:101EEE0004BE7EEF0FF07CEF0FF099EF0FF001C004
:101EFE0005F002C006F003C007F004C008F0051E8E
:101F0E00061E071E081E052A000E0622072208229C
:101F1E0005C00BF006C00CF007C00DF008C00EF0A7
:101F2E00A1EF0FF001C00BF002C00CF003C00DF0DA
:101F3E0004C00EF00150021003100410D8A4AAEF32
:101F4E000FF0ACEF0FF0B6EF0FF0000E016E000EBB
:101F5E00026E000E036E000E046E47EF10F0960E2A
:101F6E000A6EC0EF0FF00A2AD8900E320D320C32E4
:101F7E000B32000E0B14056E000E0C14066E000EC6
:101F8E000D14076EFE0E0E14086E05500610071087
:101F9E000810D8A4D5EF0FF0D7EF0FF0BAEF0FF06F
:101FAE00E5EF0FF00A2A010E0B26000E0C220D2271
:101FBE000E22D8900E320D320C320B32000E0B1454
:101FCE00056E000E0C14066E000E0D14076EFF0E3D
:101FDE000E14086E0550061007100810D8A4FAEF5C
:101FEE000FF0FCEF0FF0D9EF0FF004EF10F00A0630
:101FFE00D8900B360C360D360E360DBE09EF10F09E
:10200E000BEF10F013EF10F0020E0A6011EF10F04C
:10201E0013EF10F0FEEF0FF00AB018EF10F01AEFFA
:10202E0010F01BEF10F00D9ED8900A320AC005F08A
:10203E00066A076A086A05C008F0076A066A056A32
:10204E0005500B1206500C1207500D1208500E12AE
:10205E000950D8B435EF10F037EF10F03FEF10F015
:10206E0004BE3EEF10F03CEF10F03FEF10F00E8E7E
:10207E000BC001F00CC002F00DC003F00EC004F056
:10208E001200000E0001826F030E816FEFEC17F04D
:10209E0000018FBF57EF10F055EF10F05FEF10F00B
:1020AE002D0E85EC19F000018E6D8F1FD8B08F2B81
:1020BE008FBF6BEF10F0110E8E5D270E8F59D8A0CB
:1020CE006BEF10F06DEF10F07EEF10F08EC086F01B
:1020DE008FC087F0270E896F100E886F57EC13F0A4
:1020EE0000018651300F906F905185EC19F0000170
:1020FE008FBF8BEF10F0E90E8E5D030E8F59D8A0B7
:10210E008BEF10F08DEF10F0A9EF10F0270E836F0C
:10211E00100E826F8EC080F08FC081F0B9EC13F07C
:10212E0080C086F081C087F0030E0001896FE80E33
:10213E00886F57EC13F000018651300F906F90515D
:10214E0085EC19F000018FBFB6EF10F08F5109E149
:10215E00650E8E5DD8A0B6EF10F0B8EF10F0D4EF8C
:10216E0010F0030E836FE80E826F8EC080F08FC06A
:10217E0081F0B9EC13F080C086F081C087F0000EBC
:10218E000001896F640E886F57EC13F000018651C1
:10219E00300F906F905185EC19F000018FBFE1EF79
:1021AE0010F08F5109E10B0E8E5DD8A0E1EF10F00B
:1021BE00E3EF10F0FFEF10F0000E836F640E826FEE
:1021CE008EC080F08FC081F0B9EC13F080C086F025
:1021DE0081C087F0000E0001896F0A0E886F57ECE0
:1021EE0013F000018651300F906F905185EC19F06D
:1021FE008EC080F08FC081F0000E0001836F0A0E3A
:10220E00826FB9EC13F000018051300F906F905136
:10221E0085EC19F01200353436343C6E3C50D8A49F
:10222E001BEF11F01DEF11F027EF11F0000E336EC2
:10223E00000E346E000E356E000E366E94EF11F0F9
:10224E0033C037F034C038F035C039F036C03AF00C
:10225E00200E37EF11F0D8903A3239323832373209
:10226E00E82E32EF11F037503B6E358EFF0E3316DF
:10227E00FF0E3416FF0E3516000E3616960E3C5E09
:10228E003CBE4EEF11F04CEF11F064EF11F03C50EC
:10229E00800A970FD8B056EF11F058EF11F05AEFA1
:1022AE0011F01DEF11F0D890363235323432333210
:1022BE003C3E5AEF11F07CEF11F01F0E3C646AEFBA
:1022CE0011F06CEF11F074EF11F01DEF11F0D890CA
:1022DE0033363436353636363C063C50D8A47AEF93
:1022EE0011F07CEF11F06EEF11F03B50D8B482EF8D
:1022FE0011F084EF11F08CEF11F0361E351E341EE6
:10230E00336C000E34223522362233C033F034C003
:10231E0034F035C035F036C036F01200000E011420
:10232E00096E000E02140A6E800E03140B6E7F0EE1
:10233E0004140C6E09500A100B100C10D8A4AAEF3E
:10234E0011F0ACEF11F0B4EF11F0000E016E000EB3
:10235E00026E000E036E000E046E000E0514096E62
:10236E00000E06140A6E800E07140B6E7F0E0814F4
:10237E000C6E09500A100B100C10D8A4C9EF11F0F6
:10238E00CBEF11F0D3EF11F0000E056E000E066EBE
:10239E00000E076E000E086E04AED8EF11F0DAEFE5
:1023AE0011F0E3EF11F0016C021ED8B0022A031EE9
:1023BE00D8B0032A800E045608AEE8EF11F0EAEF0B
:1023CE0011F0F3EF11F0056C061ED8B0062A071EA9
:1023DE00D8B0072A800E0856000E011A000E021AF7
:1023EE00000E031A800E041A000E051A000E061AAD
:1023FE00000E071A800E081A0550015C065002588E
:10240E000750035808500458D8B010EF12F012EFCE
:10241E0012F015EF12F0D89016EF12F0D8801200CD
:10242E0001011B6FB40E01011B6520EF12F022EFAC
:10243E0012F024EF12F0B40E1B6F1B51006F016BE4
:10244E00026B036B190E046F000E056F000E066F04
:10245E00000E076F49EC16F000C10CF101C10DF131
:10246E0002C10EF103C10FF1090E0101106F000E32
:10247E00116F000E126F000E136F66EC14F07D0ECE
:10248E0001010C251C6F000E0D211D6F000E0E217B
:10249E001E6F000E0F211F6F1F511E110BE1720ECA
:1024AE001C5D020E1D59D8A05FEF12F061EF12F005
:1024BE0069EF12F0710E1C6F020E1D6F000E1E6F73
:1024CE00000E1F6F1F511E111D1107E17D0E1C5DA9
:1024DE00D8B074EF12F076EF12F07EEF12F07D0EA0
:1024EE001C6F000E1D6F000E1E6F000E1F6F1CC1A5
:1024FE0019F11DC11AF1120000019B6FB40E0001FB
:10250E009B658CEF12F08EEF12F090EF12F0B40E7E
:10251E009B6F9B51806F816B826B836B190E846FE7
:10252E00000E856F000E866F000E876F7FEC16F023
:10253E0080C08CF081C08DF082C08EF083C08FF091
:10254E00090E0001906F000E916F000E926F000E3B
:10255E00936FB9EC14F07D0E00018C259C6F000E6C
:10256E008D219D6F000E8E219E6F000E8F219F6F0D
:10257E009F519E110BE1720E9C5D020E9D59D8A0CB
:10258E00CBEF12F0CDEF12F0D5EF12F0710E9C6F73
:10259E00020E9D6F000E9E6F000E9F6F9F519E113B
:1025AE009D1107E17D0E9C5DD8B0E0EF12F0E2EFD9
:1025BE0012F0EAEF12F07D0E9C6F000E9D6F000E72
:1025CE009E6F000E9F6F9CC099F09DC09AF01200F6
:1025DE001C6EB40E1C64F6EF12F0F8EF12F0FAEF68
:1025EE0012F0B40E1C6E1C50016E026A036A046A6D
:1025FE00190E056E000E066E000E076E000E086EAA
:10260E00EAEC16F001C00DF002C00EF003C00FF0A0
:10261E0004C010F0090E116E000E126E000E136E35
:10262E00000E146E0CEC15F07D0E0D241D6E000EBA
:10263E000E201E6E000E0F201F6E000E1020206E3C
:10264E0020501F100BE1720E1D5C020E1E58D8A0FA
:10265E0033EF13F035EF13F03DEF13F0710E1D6EE7
:10266E00020E1E6E000E1F6E000E206E20501F10EA
:10267E001E1007E17D0E1D5CD8B048EF13F04AEF37
:10268E0013F052EF13F07D0E1D6E000E1E6E000E37
:10269E001F6E000E206E1DC01AF01EC01BF0120021
:1026AE0000018B6B89BF60EF13F05EEF13F066EFE6
:1026BE0013F0886D891FD8B0892B010E8B6F87BFE1
:1026CE006DEF13F06BEF13F073EF13F0866D871F42
:1026DE00D8B0872B010E8B1B000E8D6F000E8C6FEA
:1026EE0088518911D8B47EEF13F080EF13F0A8EF64
:1026FE0013F0010E8A6F88EF13F0D8908837893760
:10270E008A2B89AF8DEF13F08FEF13F084EF13F058
:10271E00D8908C378D378851865D89518759D8A0CE
:10272E009BEF13F09DEF13F0A2EF13F08851865F2D
:10273E008951875B8C81D890893388338A2F8FEFAC
:10274E0013F08B51D8B4AEEF13F0B0EF13F0B4EF2B
:10275E0013F08C6D8D1FD8B08D2B8CC086F08DC074
:10276E0087F012000001856B81BFC2EF13F0C0EF3E
:10277E0013F0C8EF13F0806D811FD8B0812B010EBE
:10278E00856F83BFCFEF13F0CDEF13F0D3EF13F0C0
:10279E00826D831FD8B0832B82518311D8B4DAEFA8
:1027AE0013F0DCEF13F000EF14F0010E846FE4EF82
:1027BE0013F0D89082378337842B83AFE9EF13F071
:1027CE00EBEF13F0E0EF13F08251805D83518159EE
:1027DE00D8A0F4EF13F0F6EF13F0FAEF13F08251E6
:1027EE00805F8351815BD89083338233842FEBEFEC
:1027FE0013F08551D8B406EF14F008EF14F00CEF77
:10280E0014F0806D811FD8B0812B80C080F081C004
:10281E0081F01200000E0114096E000E02140A6EF1
:10282E00800E03140B6E7F0E04140C6E09500A10EA
:10283E000B100C10D8A426EF14F028EF14F030EF84
:10284E0014F0000E016E000E026E000E036E000EEE
:10285E00046E000E0514096E000E06140A6E800E2C
:10286E0007140B6E7F0E08140C6E09500A100B1015
:10287E000C10D8A445EF14F047EF14F04FEF14F0FE
:10288E00000E056E000E066E000E076E000E086E30
:10289E00055001180FE1065002180CE107500318FD
:1028AE0009E108500418D8B45FEF14F061EF14F08A
:1028BE0064EF14F0D89065EF14F0D8801200000E7B
:1028CE000101146F000E156F000E166F000E176FBC
:1028DE001051111112111311D8B478EF14F07AEFC0
:1028EE0014F0B0EF14F0010E186F84EF14F0D890BE
:1028FE001037113712371337182B13AF89EF14F027
:10290E008BEF14F07EEF14F0D8901437153716377E
:10291E00173710510C5D11510D5912510E5913519B
:10292E000F59D8A09DEF14F09FEF14F0A8EF14F0FC
:10293E0010510C5F11510D5B12510E5B13510F5B59
:10294E001481D8901333123311331033182F8BEFA9
:10295E0014F014C10CF115C10DF116C10EF117C111
:10296E000FF11200000E0001946F000E956F000E15
:10297E00966F000E976F9051911192119311D8B4DA
:10298E00CBEF14F0CDEF14F003EF15F0010E986FAE
:10299E00D7EF14F0D8909037913792379337982B12
:1029AE0093AFDCEF14F0DEEF14F0D1EF14F0D8900B
:1029BE00943795379637973790518C5D91518D5945
:1029CE0092518E5993518F59D8A0F0EF14F0F2EF27
:1029DE0014F0FBEF14F090518C5F91518D5B92517E
:1029EE008E5B93518F5B9481D89093339233913356
:1029FE009033982FDEEF14F094C08CF095C08DF0CC
:102A0E0096C08EF097C08FF01200000E156E000E5D
:102A1E00166E000E176E000E186E11501210131057
:102A2E001410D8B41DEF15F01FEF15F055EF15F07B
:102A3E00010E196E29EF15F0D89011361236133695
:102A4E001436192A14AE2EEF15F030EF15F023EFD1
:102A5E0015F0D890153616361736183611500D5CFF
:102A6E0012500E5813500F5814501058D8A042EF51
:102A7E0015F044EF15F04DEF15F011500D5E12509C
:102A8E000E5A13500F5A1450105A1580D8901432F3
:102A9E00133212321132192E30EF15F015C00DF01F
:102AAE0016C00EF017C00FF018C010F0120006007E
:102ABE00D9CF40F0DACF41F0F3CF42F0F4CF43F06C
:102ACE00F6CF44F0F7CF45F0F8CF46F0F5CF47F00C
:102ADE00F2A274EF15F076EF15F077EF15F0F29293
:102AEE009EAA7CEF15F07EEF15F08DEF15F09E9AF5
:102AFE00ABA284EF15F086EF15F089EF15F0AB98C9
:102B0E000000AB88100E8C6E87EC0EF047C0F5FF00
:102B1E0046C0F8FF45C0F7FF44C0F6FF43C0F4FFC0
:102B2E0042C0F3FF41C0DAFF40C0D9FF78921100D6
:102B3E00010121AFACEF15F0A60E205DFF0E21595D
:102B4E00D8B0ACEF15F0AEEF15F0B2EF15F0FF0EFA
:102B5E00216FA60E206F21BFBEEF15F0215109E1A6
:102B6E005B0E205DD8A0BEEF15F0C0EF15F0C4EFE0
:102B7E0015F0000E216F5A0E206F5A0E2025226F6F
:102B8E00000E2121236F225117EC12F019C124F1EE
:102B9E001AC125F124C100F125C101F1A9EC17F0EC
:102BAE0012000001A1AFE5EF15F0A60EA05DFF0E1D
:102BBE00A159D8B0E5EF15F0E7EF15F0EBEF15F0F2
:102BCE00FF0EA16FA60EA06FA1BFF7EF15F0A151DA
:102BDE0009E15B0EA05DD8A0F7EF15F0F9EF15F047
:102BEE00FDEF15F0000EA16F5A0EA06F5A0EA02524
:102BFE00A26F000EA121A36FA25183EC12F099C017
:102C0E00A4F09AC0A5F0A4C080F0A5C081F0CCECD1
:102C1E0017F0120022AE1DEF16F0A60E215CFF0E6D
:102C2E002258D8B01DEF16F01FEF16F023EF16F056
:102C3E00FF0E226EA60E216E22BE2FEF16F0225030
:102C4E0009E15B0E215CD8A02FEF16F031EF16F0E4
:102C5E0035EF16F0000E226E5A0E216E5A0E2124FA
:102C6E00236E000E2220246E2350EFEC12F01AC0B9
:102C7E0025F01BC026F025C001F026C002F012EC94
:102C8E0018F01200000E0101086F000E096F000E01
:102C9E000A6F000E0B6F00A157EF16F059EF16F0EA
:102CAE0061EF16F0045108270551092306510A2336
:102CBE0007510B23D8900437053706370737D890BE
:102CCE00033302330133003300510111021103119A
:102CDE00D8A474EF16F076EF16F052EF16F008C186
:102CEE0000F109C101F10AC102F10BC103F1120099
:102CFE00000E0001886F000E896F000E8A6F000EA5
:102D0E008B6F80A18DEF16F08FEF16F097EF16F008
:102D1E00845188278551892386518A2387518B2395
:102D2E00D8908437853786378737D8908333823368
:102D3E00813380338051811182118311D8A4AAEF7F
:102D4E0016F0ACEF16F088EF16F088C080F089C050
:102D5E0081F08AC082F08BC083F01200C6EC18F0AE
:102D6E00FF0E0101216FA60E206F9FEC15F08C6AED
:102D7E00000E0101016F000E006F73EC18F000C120
:102D8E0054F001C155F055BED6EF16F0040E555C49
:102D9E00D8B0D4EF16F0D6EF16F0DDEF16F055BE24
:102DAE00DDEF16F0DBEF16F0E1EF16F0000E556ECC
:102DBE00000E546E000E0001CA6F000EC96FE6EFD2
:102DCE0016F0BBEF00F0000E096E000E0A6E000E3C
:102DDE000B6E000E0C6E01A0F7EF16F0F9EF16F069
:102DEE0001EF17F00550092606500A2207500B2254
:102DFE0008500C22D8900536063607360836D8907D
:102E0E000432033202320132015002100310041058
:102E1E00D8A414EF17F016EF17F0F2EF16F009C062
:102E2E0001F00AC002F00BC003F00CC004F0120057
:102E3E009C0EF66E330EF76E000EF86E0900F5CF8F
:102E4E00CBF00900F5CFCCF08A0EF66E330EF76E8E
:102E5E00000EF86E00EE6EF010EE0AF00900F5CFDF
:102E6E00EEFFE550E150FAE100EEB3F0180EEE6A17
:102E7E00E806FDE100EE48F0260EEE6AE806FDE1FA
:102E8E0078907892000EF86E060EF76E0001B5EF90
:102E9E0016F054EF17F0012A022A0150D96EDA6AA1
:102EAE00DF50036E02C0F6FF0800F5500318D8A4D9
:102EBE0063EF17F065EF17F070EF17F00150D96E52
:102ECE00DA6ADF50D8A46EEF17F070EF17F052EFFA
:102EDE0017F00150D96EDA6ADF50036E02C0F6FFAA
:102EEE000800F550035C016E026AD8A002061200BB
:102EFE00010E076E01C003F0D00E0326090E036407
:102F0E008BEF17F08DEF17F0A5EF17F0200E0110D5
:102F1E00036E000E0210046E9F0E0324056EFF0E4C
:102F2E000420066E065009E1060E055CD8A0A2EF3D
:102F3E0017F0A4EF17F0A5EF17F0076A07C001F01E
:102F4E00026A1200040E0101015DD8A0B1EF17F064
:102F5E00B3EF17F0B6EF17F0030E016F006900C163
:102F6E0002F101C103F1D89003330233D890033339
:102F7E0002330251BE6ECF0EBD1600C102F1030E1A
:102F8E0002170239F00BBD121200040E0001815D12
:102F9E00D8A0D4EF17F0D6EF17F0D9EF17F0030E35
:102FAE00816F806980C082F081C083F0D8908333B6
:102FBE008233D890833382338251BE6ECF0EBD16CC
:102FCE0080C082F0030E82178239F00BBD12120000
:102FDE000D0E85EC19F0000E0001856F000E846F4A
:102FEE00FFEF17F0200E85EC19F00001844B852BB6
:102FFE008151845D8551800A836F8251800A835985
:10300E00D8A00CEF18F00EEF18F0F9EF17F00D0E28
:10301E0085EC19F01200040E025CD8A019EF18F01E
:10302E001BEF18F01EEF18F0030E026E016801C0C0
:10303E0003F002C004F0D89004320332D890043268
:10304E0003320350BE6ECF0EBD1601C003F0030E49
:10305E0003160338F00BBD121200000E056E000EA3
:10306E00046E45EF18F002500424036E03C0F6FF01
:10307E000800F5509CEC19F0044A052A025004246D
:10308E00036E03C0F6FF0800F5500009D8A452EFF6
:10309E0018F054EF18F03AEF18F01200000E026E0E
:1030AE00000E016E01505A0FD96EDA6ADF6A014ABC
:1030BE00022A02BE6CEF18F0025009E10A0E015C02
:1030CE00D8A06CEF18F06EEF18F059EF18F0000E54
:1030DE004B6E000E4A6E1200C30EC216C282C28022
:1030EE00C2B27CEF18F07EEF18F077EF18F0C350F5
:1030FE00C4CF02F10101036B02C103F1026B021195
:10310E00046F0351056F04C100F105C101F11200F6
:10311E000150021003100410D8B498EF18F09AEF73
:10312E0018F0A2EF18F0000E011A000E021A000E8F
:10313E00031A800E041A01C001F002C002F003C08F
:10314E0003F004C004F01200000181BFB1EF18F0CB
:10315E00B3EF18F0B9EF18F080C080F081C081F0A5
:10316E00C5EF18F080C082F081C083F0821F831FEC
:10317E00824B832B82C080F083C081F01200C1503D
:10318E00F00B0E09C16ECAEC19F0A7EC19F0B9ECF0
:10319E0019F079EC19F091EC19F023EC19F06BECB5
:1031AE0019F0B0EC19F0BFEC19F049EC19F012005F
:1031BE0001C003F09F0E03261A0E0360E9EF18F00C
:1031CE00EBEF18F0F1EF18F05F0E0114016E026ACA
:1031DE00F5EF18F001C001F002C002F0120001C0BC
:1031EE0003F0FBEF18F0012A0150D96EDA6ADF50B6
:1031FE00D8A404EF19F006EF19F0FAEF18F0035007
:10320E00015C016E026A01BE02061200D00E01249C
:10321E00036EFF0E0220046E04500AE10A0E035CD8
:10322E00D8A01CEF19F01FEF19F0010E20EF19F0C6
:10323E00000E016E026A1200D08EF28EF28CF288AF
:10324E00F19CF2929E9C9D8C9F9CF294F28AF1943A
:10325E009E909D809F909E929D829F921200015003
:10326E000302F3CF05F0F4CF06F001500402F35041
:10327E00062602500302F350062605C001F006C0D2
:10328E0002F0120092680E0EC16EC08E070EC012B2
:10329E00C46AC36A010EC26E0E0EC16EAA0EC06E55
:1032AE009E9CC2821200FF0E056EFF0E066EFF0E72
:1032BE00076E7F0E086E05C001F006C002F007C053
:1032CE0003F008C004F01200948C948EAC98B8965B
:1032DE00AC94330EAF6EAB8EAC8AAB889D8A9F8A50
:1032EE009E9A1200CD8ECD92CD50CF0B2009CD6E71
:1032FE00FB0ECF6E1E0ECE6ECD8012000001806FC3
:10330E00ACA28CEF19F08EEF19F087EF19F080C098
:10331E00ADFF1200D59CD59AD596070ED512FC0E90
:10332E00D76E2F0ED66ED58E1200016EACA2A2EF06
:10333E0019F0A4EF19F09DEF19F001C0ADFF1200C6
:10334E00D3508F0B6009D36ED350FC0B0109D36E93
:10335E00120094945D0EBE6E3C0EBD6E9E949F84C4
:10336E00CA841200CB68CA6A030ECA6ECC6A1200F7
:10337E0094920C0EBA6EA190A280120070301000C2
:10338E004060010001000F0E956E8C6A1200A6FFC0
:020000040020DA
:08000000FFFFFFFFFFFFFFFF00
:020000040030CA
:0E000000FF881F00FF8181FF0FC00FE00F403F
:00000001FF
