:020000040000FA
:0400000050EF00F0CD
:060008004D82E6ED10F050
:100018004D80D8CFA9F0E8CFAAF0E0CFABF09EA2F0
:1000280018EF00F01AEF00F048EF00F09E92454AF2
:10003800462A4B50455C4650800A0001A86F4C5038
:10004800800AA859D8A02BEF00F02DEF00F048EF58
:1000580000F0494A4A2A4ABE3BEF00F04A5009E1FB
:10006800100E495CD8A03BEF00F03DEF00F041EFE7
:1000780000F0000E4A6E000E496E4938F00B8C6E87
:10008800000E466E000E456EABC0E0FFAAC0E8FF4A
:0C009800A9C0D8FF4D90100041EF13F0FC
:1006000000494E46494E49545900696E66696E6903
:100610007479004E414E00696E66006E616E000096
:10062000000E256E000E246E1B501C10D8B41BEF5C
:1006300003F01DEF03F026EF03F01BC0D9FF1CC031
:10064000DAFF1AC0DFFF26EF03F01A2A1A50D96E1C
:10065000DA6A200EDE18D8B430EF03F033EF03F07F
:10066000010E34EF03F0000E2C6E2D6A2C502D106D
:10067000D8A43DEF03F03FEF03F025EF03F01A504D
:10068000D96EDA6ADF501E6E1E502C6E2D6A2CC099
:100690001FF0F70E1F26040E1F6451EF03F053EFF7
:1006A00003F025EF03F0000E296E2D0E2C182D10EF
:1006B000D8A45DEF03F05FEF03F064EF03F0010EE9
:1006C000296E1A2A70EF03F02B0E2C182D10D8A4C7
:1006D0006CEF03F06EEF03F070EF03F061EF03F0E7
:1006E000000E326E75EF03F0322A1A503224D96EA2
:1006F000DA6ADF50D8B47FEF03F081EF03F0ABEF9D
:1007000003F01A503224D96EDA6ADF501E6E32506E
:100710000A0F1F6E1FC0F6FF0800F5501E18D8B450
:1007200094EF03F096EF03F074EF03F01A503224C5
:10073000D96EDA6ADF501E6E3250010F1F6E1FC075
:10074000F6FF0800F5501E18D8B4A9EF03F0ABEF80
:1007500003F074EF03F0020E3264B1EF03F0B3EF75
:1007600003F0D8EF03F0000E2E6E000E2F6E800EF9
:10077000306E7F0E316E1B501C10D8B4C2EF03F0E8
:10078000C4EF03F074EF0AF0080E3218D8B4CBEFC0
:1007900003F0CDEF03F0CFEF03F0030E326E1A50EB
:1007A00032241BC0D9FF1CC0DAFFDF6E74EF0AF0E1
:1007B000000E326EDDEF03F0322A1A503224D96E69
:1007C000DA6ADF50D8B4E7EF03F0E9EF03F013EF94
:1007D00004F01A503224D96EDA6ADF501E6E32509D
:1007E0001B0F1F6E1FC0F6FF0800F5501E18D8B46F
:1007F000FCEF03F0FEEF03F0DCEF03F01A503224BD
:10080000D96EDA6ADF501E6E3250130F1F6E1FC092
:10081000F6FF0800F5501E18D8B411EF04F013EFDE
:1008200004F0DCEF03F0030E3218D8A41AEF04F042
:100830001CEF04F074EF04F0160E016E4EEC14F091
:1008400001C02EF002C02FF003C030F004C031F020
:100850001B501C10D8B42FEF04F031EF04F074EFEC
:100860000AF032501A261A50D96EDA6A280EDE18AB
:10087000D8A43DEF04F03FEF04F06CEF04F0000E5D
:10088000326E44EF04F0322A1A503224D96EDA6AFA
:10089000DF50D8B44EEF04F050EF04F05DEF04F0F9
:1008A0001A503224D96EDA6A290EDE18D8A45BEF0A
:1008B00004F05DEF04F043EF04F01A503224D96ED7
:1008C000DA6A290EDE18D8A468EF04F06AEF04F0A3
:1008D0006CEF04F032281A261BC0D9FF1CC0DAFFC7
:1008E0001AC0DFFF74EF0AF0000E2D6E000E2C6EA2
:1008F000000E2E6E000E2F6E000E306E000E316E4A
:10090000000E266E000E276E000E2B6E000E2A6E55
:10091000000E326E8DEF04F0322A1A503224D96E56
:10092000DA6A300EDE18D8B498EF04F09AEF04F0CB
:100930008CEF04F03250D8B4A0EF04F0A2EF04F032
:1009400002EF08F01A503224D96EDA6A780EDE18F7
:10095000D8B4ADEF04F0AFEF04F0BCEF04F01A50E0
:100960003224D96EDA6A580EDE18D8A4BAEF04F031
:10097000BCEF04F002EF08F01A503224D96EDA6AA4
:10098000010ED926DF501E6E1E50016E026A16EC53
:1009900013F001500210D8A4D0EF04F0D2EF04F00D
:1009A000E3EF04F01A503224D96EDA6A010ED92628
:1009B0002E0EDE18D8B4DFEF04F0E1EF04F0E3EF21
:1009C00004F02DEF07F032C026F0322A1A503224FC
:1009D000D96EDA6A300EDE18D8B4F1EF04F0F3EF16
:1009E00004F0E5EF04F01A503224D96EDA6A700E82
:1009F000DE18D8B4FEEF04F000EF05F058EF06F073
:100A00001A503224D96EDA6A500EDE18D8A40BEFD1
:100A100005F00DEF05F00FEF05F058EF06F01A5056
:100A20003224D96EDA6A2E0EDE18D8A41AEF05F039
:100A30001CEF05F022EF05F0298832C027F0322A9A
:100A400058EF06F01A503224D96EDA6ADF501E6E63
:100A50001E50016E026A16EC13F001500210D8B459
:100A600034EF05F036EF05F02DEF07F0000E286E9D
:100A70001A503224D96EDA6ADF501E6E1E50016E93
:100A8000026A25EC14F001500210D8B44AEF05F0C8
:100A90004CEF05F055EF05F01A503224D96EDA6AA2
:100AA000DF50D00F286E63EF05F01A503224D96E54
:100AB000DA6ADF501E6E1E50016E026AF8EC13F007
:100AC0000150C90F286E2DBE71EF05F02D5007E1C2
:100AD000080E2C5CD8B06FEF05F071EF05F090EFC9
:100AE00005F02C5007081E6ED8901E36D8901E3682
:100AF00028C01FF0206A216A226A1E2A85EF05F0AD
:100B0000D8901F362036213622361E2E80EF05F073
:100B10001F502E1220502F1221503012225031120D
:100B20002C4A2D2A040E2A26000E2B22322AF3EFFD
:100B300004F01A503224D96EDA6A300EDE18D8A4C6
:100B4000A4EF05F0A6EF05F0B5EF05F02C502D1041
:100B5000D8A4ADEF05F0AFEF05F0B5EF05F0FC0E52
:100B60002A26FF0E2B2257EF06F01A503224D96E98
:100B7000DA6ADF501E6E1E50016E026A16EC13F028
:100B800001500210D8B4C7EF05F0C9EF05F027EF08
:100B900006F0000E286E1A503224D96EDA6ADF5041
:100BA0001E6E1E50016E026A25EC14F001500210F8
:100BB000D8B4DDEF05F0DFEF05F0E8EF05F01A50EF
:100BC0003224D96EDA6ADF50D00F286EF6EF05F0C6
:100BD0001A503224D96EDA6ADF501E6E1E50016E32
:100BE000026AF8EC13F00150C90F286E2DBE04EF15
:100BF00006F02D5007E1080E2C5CD8B002EF06F08D
:100C000004EF06F023EF06F02C5007081E6ED89074
:100C10001E36D8901E3628C01FF0206A216A226A2C
:100C20001E2A18EF06F0D8901F36203621362236BD
:100C30001E2E13EF06F01F502E1220502F1221509F
:100C40003012225031122C4A2D2A57EF06F0325022
:100C50001E6E1F6A2750206E216A010E2026000E8C
:100C600021221E50201807E11F502118D8A43BEF65
:100C700006F03DEF06F05FEF06F027501E6E1F6A8C
:100C80002650206E216A010E2026000E21221E50C1
:100C9000201807E11F502118D8A451EF06F053EF98
:100CA00006F05FEF06F026C032F02DEF07F0322A93
:100CB00029B85DEF06F05FEF06F099EF05F03250CE
:100CC0001A26000E326E1A50D96EDA6A700EDE18CD
:100CD000D8B46DEF06F06FEF06F07DEF06F01A5016
:100CE000D96EDA6A500EDE18D8B479EF06F07BEFD1
:100CF00006F07DEF06F02DEF07F0322A1A50D96E7C
:100D0000DA6A010ED9262B0EDE18D8A48AEF06F077
:100D10008CEF06F08FEF06F0322A9FEF06F01A50A4
:100D2000D96EDA6A010ED9262D0EDE18D8A49BEFF3
:100D300006F09DEF06F09FEF06F02986322A1A5042
:100D40003224D96EDA6ADF501E6E1E50016E026ABE
:100D500025EC14F001500210D8A4B1EF06F0B3EF67
:100D600006F0B7EF06F0000E326E2DEF07F03250AE
:100D70001A26000E326EBEEF06F0322A1A503224C6
:100D8000D96EDA6A300EDE18D8B4C9EF06F0CBEFB0
:100D900006F0BDEF06F0000E2D6E000E2C6EF8EF83
:100DA00006F03250D8B4D7EF06F0D9EF06F0E7EFEF
:100DB00006F02CC001F02DC002F0000E046E0A0EE9
:100DC000036E3BEC14F001C02CF002C02DF01A5061
:100DD0003224D96EDA6ADF501E6ED00E1E241F6ECA
:100DE000206AFF0E20221F502C2620502D22322A4E
:100DF0001A503224D96EDA6ADF501E6E1E50016E10
:100E0000026A25EC14F001500210D8A40AEF07F092
:100E10000CEF07F0D1EF06F03250D8A412EF07F034
:100E200014EF07F01EEF07F0000E1A6E000E1B6E97
:100E3000000E1C6E000E1D6EAAEF0AF029A623EF0D
:100E400007F025EF07F029EF07F02C6C2D1ED8B026
:100E50002D2A2C502A262D502B221B501C10D8B482
:100E600034EF07F036EF07F03DEF07F01A50322469
:100E70001BC0D9FF1CC0DAFFDF6E2E502F103010C0
:100E80003110D8A446EF07F048EF07F052EF07F013
:100E9000000E1A6E000E1B6E000E1C6E000E1D6EF4
:100EA000AAEF0AF0FF0E2E141E6E000E2F141F6EF6
:100EB000000E3014206E000E3114216E21502010CF
:100EC0001F1009E1810E1E5CD8A069EF07F06BEFDF
:100ED00007F07DEF07F0000E2E26010E2F22000EE8
:100EE0003022000E31227DEF07F0D8902E362F36BB
:100EF000303631362A06D8A02B0631AE82EF07F005
:100F000084EF07F075EF07F02BAE90EF07F0830E3C
:100F10002A5CFF0E2B58D8B090EF07F092EF07F045
:100F20009EEF07F0FF0E2B6E810E2A6E000E2E6EC6
:100F3000000E2F6E000E306E000E316E810E2A18DC
:100F400008E12B28D8B4A7EF07F0A9EF07F0B1EF1D
:100F500007F0D8902E362F36303631362A06D8A0F4
:100F60002B062BBEBDEF07F02B5009E1800E2A5C4B
:100F7000D8A0BDEF07F0BFEF07F0D1EF07F0000EEC
:100F80002E6E000E2F6E000E306E000E316E000EB3
:100F90002B6E800E2A6E000E256E220E246E74EFCC
:100FA0000AF0090E1E6ED890313230322F322E32B6
:100FB0001E2ED3EF07F0FF0E2E16FF0E2F167F0EFC
:100FC0003016000E31167F0E2A241E6E000E2B20C6
:100FD0001F6EFF0E1E14206E216A226A236A170EEE
:100FE000D8902036213622362336E82EF0EF07F04F
:100FF00020502E1221502F12225030122350311225
:1010000074EF0AF029B807EF08F009EF08F019EFBC
:1010100008F01A50D96EDA6A2E0EDE18D8A413EF33
:1010200008F015EF08F019EF08F029881A2A02EFE6
:1010300008F01A50D96EDA6ADF501E6E1E50016E2B
:10104000026A25EC14F001500210D8A42AEF08F02F
:101050002CEF08F02EEF08F07AEF08F02982090E45
:101060002C182D10D8B437EF08F039EF08F06EEFD8
:1010700008F029A83EEF08F040EF08F043EF08F031
:101080002A06D8A02B062C4A2D2A2EC001F02FC0EC
:1010900002F030C003F031C004F00A0E056E000EFD
:1010A000066E000E076E000E086EE1EC12F001C035
:1010B0002EF002C02FF003C030F004C031F01A50FF
:1010C000D96EDA6ADF501E6ED00E1E261E502E26F6
:1010D000000E2F223022312277EF08F029B873EF6B
:1010E00008F075EF08F077EF08F02A4A2B2A1A2A41
:1010F00002EF08F0000E2D6E000E2C6E1A50D96E05
:10110000DA6A650EDE18D8B488EF08F08AEF08F0C6
:1011100096EF08F01A50D96EDA6A450EDE18D8A498
:1011200094EF08F096EF08F012EF09F01A2A1A501F
:10113000D96EDA6A2D0EDE18D8A4A1EF08F0A3EF5D
:1011400008F0A7EF08F029861A2AB4EF08F01A5021
:10115000D96EDA6A2B0EDE18D8A4B1EF08F0B3EF1F
:1011600008F0B4EF08F01A2A1A50D96EDA6A300E75
:10117000DE18D8B4BEEF08F0C0EF08F0B3EF08F007
:10118000000E286EDDEF08F01A50D96EDA6ADF50D3
:101190001E6ED00E1E262CC001F02DC002F0000ED7
:1011A000046E0A0E036E3BEC14F01E5001242C6EEC
:1011B000000E02202D6E1A2A282A1A50D96EDA6AD9
:1011C000DF501E6E1E50016E026A25EC14F00150B5
:1011D0000210D8A4EEEF08F0F0EF08F0C4EF08F02A
:1011E0002850D8A4F6EF08F0F8EF08F007EF09F060
:1011F0001A50D96EDA6AFF0ED926300EDE18D8B42E
:1012000004EF09F006EF09F007EF09F01A0629A626
:101210000CEF09F00EEF09F012EF09F02C6C2D1E07
:10122000D8B02D2A2C502A262D502B221B501C10B2
:10123000D8B41DEF09F01FEF09F02CEF09F029A237
:1012400024EF09F026EF09F02CEF09F01BC0D9FFBD
:101250001CC0DAFF1AC0DFFF2EC001F02FC002F061
:1012600030C003F031C004F0000E8DEC0EF001C070
:101270002EF002C02FF003C030F004C031F02EC0B9
:1012800001F02FC002F030C003F031C004F0000EB6
:10129000056E000E066E000E076E000E086E0CEC5A
:1012A00012F0D8A056EF09F058EF09F062EF09F0FC
:1012B000000E1A6E000E1B6E000E1C6E000E1D6ED0
:1012C000AAEF0AF02BBE69EF09F067EF09F0F7EF1C
:1012D00009F02A6C2B1ED8B02B2A8DEF09F02EC0F6
:1012E00001F02FC002F030C003F031C004F0F90E5D
:1012F000056E020E066E150E076E500E086EC0ECDF
:101300000CF001C02EF002C02FF003C030F004C07A
:1013100031F0F60E2A26FF0E2B222BBE9BEF09F092
:101320002B5007E10A0E2A5CD8B099EF09F09BEF29
:1013300009F06FEF09F0BAEF09F02EC001F02FC0ED
:1013400002F030C003F031C004F0000E056E000E54
:10135000066E200E076E410E086EC0EC0CF001C048
:101360002EF002C02FF003C030F004C031F02A0686
:10137000D8A02B062A502B10D8A4C1EF09F0C3EF38
:1013800009F09DEF09F02EC001F02FC002F030C02F
:1013900003F031C004F0000E056E000E066E800EE4
:1013A000076E000E086EEAEC0FF0D8B0DAEF09F025
:1013B000DCEF09F074EF0AF029A0E1EF09F0E3EFA8
:1013C00009F0EDEF09F0000E1A6E000E1B6E800E94
:1013D0001C6E800E1D6EAAEF0AF0000E1A6E000E33
:1013E0001B6E800E1C6E000E1D6EAAEF0AF02BBE47
:1013F00002EF0AF02B5008E12A04D8A002EF0AF00D
:1014000004EF0AF074EF0AF024EF0AF02EC001F0A6
:101410002FC002F030C003F031C004F0F90E056EA9
:10142000020E066E150E076E500E086EABEC0AF03B
:1014300001C02EF002C02FF003C030F004C031F024
:10144000F60E2A26FF0E2B222B5007E10A0E2A5CED
:10145000D8B02DEF0AF02FEF0AF006EF0AF04EEFAA
:101460000AF02EC001F02FC002F030C003F031C0EE
:1014700004F0000E056E000E066E200E076E410E83
:10148000086EABEC0AF001C02EF002C02FF003C0D2
:1014900030F004C031F02A06D8A02B062A502B10B9
:1014A000D8A455EF0AF057EF0AF031EF0AF0FF0E1B
:1014B000016EFF0E026E7F0E036E7F0E046E2EC055
:1014C00005F02FC006F030C007F031C008F0EAEC9C
:1014D0000FF0D8B06EEF0AF070EF0AF074EF0AF078
:1014E000000E256E220E246E24502510D8B47BEFFA
:1014F0000AF07DEF0AF089EF0AF024C043F025C01E
:1015000044F0000E2E6E000E2F6E800E306E7F0E99
:10151000316E29A08EEF0AF090EF0AF0A2EF0AF0E8
:101520002EC001F02FC002F030C003F031C004F033
:10153000C0EC13F001C02EF002C02FF003C030F059
:1015400004C031F02EC01AF02FC01BF030C01CF0C8
:1015500031C01DF012000450800B0D6E04500424A5
:10156000136E03AEB6EF0AF0B8EF0AF0B9EF0AF067
:1015700013801350D8B4BFEF0AF0C1EF0AF0D4EFD4
:101580000AF01328D8A4C7EF0AF0C9EF0AF0D1EF88
:101590000AF0000E016E000E026E000E036E000EC9
:1015A000046E038EDCEF0AF0000E016E000E026E78
:1015B000000E036E000E046E0850800B0D1A0850CA
:1015C0000824126E07AEE7EF0AF0E9EF0AF0EAEF3F
:1015D0000AF012801250D8B4F0EF0AF0F2EF0AF0DD
:1015E00005EF0BF01228D8A4F8EF0AF0FAEF0AF092
:1015F00002EF0BF0000E056E000E066E000E076E79
:10160000000E086E078E0DEF0BF0000E056E000E3B
:10161000066E000E076E000E086E1250D8B413EF5F
:101620000BF015EF0BF01DEF0BF01350D8A41BEFD0
:101630000BF01DEF0BF027EF0BF0000E016E000E0C
:10164000026E000E036E000E046EBFEF0CF007502A
:101650000102F3CF18F0F4CF19F018500E6E0F6A94
:10166000106A116A1950146E156A166A176A0650C4
:101670000202F3CF18F0F4CF19F018500E26000E26
:101680000F221022112219501426000E15221622A4
:10169000172205500302F3CF18F0F4CF19F01850B9
:1016A0000E26000E0F221022112219501426000EB1
:1016B00015221622172210C011F00FC010F00EC014
:1016C0000FF00E6A05500202F3CF18F0F4CF19F0B4
:1016D00018500E2619500F22000E1022000E112253
:1016E00006500102F3CF18F0F4CF19F018500E266F
:1016F00019500F22000E1022000E112210C011F0FE
:101700000FC010F00EC00FF00E6A05500102F3CFAB
:1017100018F0F4CF19F018500E2619500F22000EB1
:101720001022000E112207500202F3CF18F0F4CF5E
:1017300019F01850142619501522000E1622000E0A
:10174000172206500302F3CF18F0F4CF19F0185007
:10175000142619501522000E1622000E17220750CB
:101760000302F3CF18F0F4CF19F01850096E195096
:101770000A6E0B6A0C6A0BC00CF00AC00BF009C0B1
:101780000AF0096A095014260A5015220B50162235
:101790000C5017220EC009F00FC00AF010C00BF059
:1017A00011C00CF0190EDAEF0BF0D8900C320B329E
:1017B0000A320932E82ED5EF0BF0095014260A50F0
:1017C00015220B5016220C50172210C011F00FC01A
:1017D00010F00EC00FF00E6A125013C009F00A6A22
:1017E0000926000E0A22820E0924186EFF0E0A2016
:1017F000196E10EF0CF0D8901436153616361736D1
:1018000011AE05EF0CF007EF0CF008EF0CF01480B0
:10181000D8900E360F36103611361806D8A0190695
:1018200016AE15EF0CF017EF0CF0FBEF0BF0000EFF
:10183000126E11AE1EEF0CF020EF0CF044EF0CF026
:10184000FF0E0E14096EFF0E0F140A6EFF0E101419
:101850000B6E7F0E11140C6E09500A100B100C1039
:10186000D8B435EF0CF037EF0CF03BEF0CF0010E75
:10187000126E44EF0CF014A040EF0CF042EF0CF0AD
:1018800044EF0CF037EF0CF01250D8B44AEF0CF0E4
:101890004CEF0CF070EF0CF0010E1426000E152228
:1018A0001622172217A057EF0CF059EF0CF070EF2B
:1018B0000CF014C009F015C00AF016C00BF017C0E8
:1018C0000CF00C340C320B320A32093209C014F01D
:1018D0000AC015F00BC016F00CC017F0184A192AF0
:1018E00019BE7BEF0CF0195008E11828D8A07BEF47
:1018F0000CF07DEF0CF087EF0CF0000E146E000E74
:10190000156E800E166E7F0E176EB5EF0CF019BEB9
:1019100094EF0CF0195006E11804D8B092EF0CF0D7
:1019200094EF0CF0A0EF0CF0000E146E000E156E8C
:10193000000E166E000E176E000E0D6EB5EF0CF059
:1019400018C013F0FF0E1416FF0E15167F0E161694
:10195000000E171613A0AFEF0CF0B1EF0CF0B2EFC2
:101960000CF0168ED8901330176E0D50171214C04D
:1019700001F015C002F016C003F017C004F0120009
:101980000450800B116E04500424186E03AECBEF8C
:101990000CF0CDEF0CF0CEEF0CF018801850D8B44E
:1019A000D4EF0CF0D6EF0CF0EBEF0CF01828D8A425
:1019B000DCEF0CF0DEEF0CF0E6EF0CF0000E016E49
:1019C000000E026E000E036E000E046E038E000EFB
:1019D000046EF3EF0CF0000E016E000E026E000EAE
:1019E000036E000E046E0850800B111A0850082474
:1019F000196E07AEFEEF0CF000EF0DF001EF0DF0E9
:101A000019801950D8B407EF0DF009EF0DF01EEF53
:101A10000DF01928D8A40FEF0DF011EF0DF019EF0C
:101A20000DF0000E056E000E066E000E076E000E25
:101A3000086E078E000E086E26EF0DF0000E056E84
:101A4000000E066E000E076E000E086E05500610A2
:101A500007100810D8A42FEF0DF031EF0DF049EF6B
:101A60000DF0000E016E000E026E000E036E000EF1
:101A7000046E800E03127F0E04121150041201C076
:101A800001F002C002F003C003F004C004F08CEFC8
:101A90000EF01850D8A44FEF0DF051EF0DF05BEFA2
:101AA0000DF0000E016E000E026E000E036E000EB1
:101AB000046E8CEF0EF0195018C009F00A6A095E26
:101AC000000E0A5A7F0E0924126E000E0A20136EB1
:101AD00001C00DF002C00EF003C00FF004C010F002
:101AE000000E016E000E026E000E036E000E046EFC
:101AF000000E146E000E156E000E166E000E176EA0
:101B0000000E196EBCEF0DF01950D8B48AEF0DF02D
:101B10008CEF0DF0A3EF0DF0D8900D360E360F368A
:101B20001036D890013602360336043617AE9BEFD6
:101B30000DF09DEF0DF09EEF0DF00180D890143662
:101B400015361636173605500D5C06500E580750E0
:101B50000F5808501058D8A0B0EF0DF0B2EF0DF0AC
:101B6000BBEF0DF0178C05500D5E06500E5A075056
:101B70000F5A0850105A192A190E1964C2EF0DF0A5
:101B8000C4EF0DF084EF0DF00D500E100F1010107B
:101B9000D8B4CDEF0DF0CFEF0DF0E7EF0DF01480DE
:101BA000E7EF0DF0D890013602360336043617AE53
:101BB000DCEF0DF0DEEF0DF0DFEF0DF00180D890DF
:101BC00014361536163617361206D8A0130603AE8D
:101BD000ECEF0DF0EEEF0DF0D2EF0DF0000E196E00
:101BE00017AEF5EF0DF0F7EF0DF01BEF0EF0FF0E57
:101BF0001414096EFF0E15140A6EFF0E16140B6EE8
:101C00007F0E17140C6E09500A100B100C10D8B46C
:101C10000CEF0EF00EEF0EF012EF0EF0010E196E3B
:101C20001BEF0EF001A017EF0EF019EF0EF01BEFF7
:101C30000EF00EEF0EF01950D8B421EF0EF023EF96
:101C40000EF047EF0EF0010E0126000E02220322D5
:101C5000042204A02EEF0EF030EF0EF047EF0EF04E
:101C600001C009F002C00AF003C00BF004C00CF080
:101C70000C340C320B320A32093209C001F00AC0AE
:101C800002F00BC003F00CC004F0124A132A13BE7A
:101C900052EF0EF0135008E11228D8A052EF0EF0C8
:101CA00054EF0EF05FEF0EF0000E136E1268000E90
:101CB000016E000E026E000E036E000E046E13BE67
:101CC0006CEF0EF0135006E11204D8B06AEF0EF07C
:101CD0006CEF0EF07AEF0EF0000E136E000E126E27
:101CE000000E016E000E026E000E036E000E046EFA
:101CF000000E116E12C018F018A081EF0EF083EFE5
:101D00000EF086EF0EF0038E87EF0EF0039ED89054
:101D10001830046E3DEF0DF01200096E0950D8B472
:101D200094EF0EF096EF0EF0B8EF0EF004BE9DEFBC
:101D30000EF09BEF0EF0B8EF0EF001C005F002C000
:101D400006F003C007F004C008F0051E061E071EBB
:101D5000081E052A000E06220722082205C00BF0E5
:101D600006C00CF007C00DF008C00EF0C0EF0EF07A
:101D700001C00BF002C00CF003C00DF004C00EF067
:101D80000150021003100410D8A4C9EF0EF0CBEFDD
:101D90000EF0D5EF0EF0000E016E000E026E000E7A
:101DA000036E000E046E66EF0FF0960E0A6EDFEF04
:101DB0000EF00A2AD8900E320D320C320B32000E81
:101DC0000B14056E000E0C14066E000E0D14076E3B
:101DD000FE0E0E14086E0550061007100810D8A449
:101DE000F4EF0EF0F6EF0EF0D9EF0EF004EF0FF077
:101DF0000A2A010E0B26000E0C220D220E22D8906C
:101E00000E320D320C320B32000E0B14056E000E2A
:101E10000C14066E000E0D14076EFF0E0E14086EE5
:101E20000550061007100810D8A419EF0FF01BEF8B
:101E30000FF0F8EF0EF023EF0FF00A06D8900B36F4
:101E40000C360D360E360DBE28EF0FF02AEF0FF0D0
:101E500032EF0FF0020E0A6030EF0FF032EF0FF0AA
:101E60001DEF0FF00AB037EF0FF039EF0FF03AEF38
:101E70000FF00D9ED8900A320AC005F0066A076A74
:101E8000086A05C008F0076A066A056A05500B1261
:101E900006500C1207500D1208500E120950D8B4FB
:101EA00054EF0FF056EF0FF05EEF0FF004BE5DEF52
:101EB0000FF05BEF0FF05EEF0FF00E8E0BC001F036
:101EC0000CC002F00DC003F00EC004F012001C3470
:101ED0001D34236E2350D8A470EF0FF072EF0FF073
:101EE0007CEF0FF0000E1A6E000E1B6E000E1C6EC3
:101EF000000E1D6EE9EF0FF01AC01EF01BC01FF0A0
:101F00001CC020F01DC021F0200E8CEF0FF0D890E7
:101F1000213220321F321E32E82E87EF0FF01E5082
:101F2000226E1C8EFF0E1A16FF0E1B16FF0E1C16BD
:101F3000000E1D16960E235E23BEA3EF0FF0A1EF39
:101F40000FF0B9EF0FF02350800A970FD8B0ABEF26
:101F50000FF0ADEF0FF0AFEF0FF072EF0FF0D89082
:101F60001D321C321B321A32233EAFEF0FF0D1EF7D
:101F70000FF01F0E2364BFEF0FF0C1EF0FF0C9EF9A
:101F80000FF072EF0FF0D8901A361B361C361D3644
:101F900023062350D8A4CFEF0FF0D1EF0FF0C3EFFB
:101FA0000FF02250D8B4D7EF0FF0D9EF0FF0E1EFD8
:101FB0000FF01D1E1C1E1B1E1A6C000E1B221C2265
:101FC0001D221AC01AF01BC01BF01CC01CF01DC043
:101FD0001DF01200000E0114096E000E02140A6EAC
:101FE000800E03140B6E7F0E04140C6E09500A1041
:101FF0000B100C10D8A4FFEF0FF001EF10F009EF59
:1020000010F0000E016E000E026E000E036E000E48
:10201000046E000E0514096E000E06140A6E800E82
:1020200007140B6E7F0E08140C6E09500A100B106B
:102030000C10D8A41EEF10F020EF10F028EF10F0D5
:10204000000E056E000E066E000E076E000E086E86
:1020500004AE2DEF10F02FEF10F038EF10F0016C00
:10206000021ED8B0022A031ED8B0032A800E0456DE
:1020700008AE3DEF10F03FEF10F048EF10F0056CA8
:10208000061ED8B0062A071ED8B0072A800E0856AA
:10209000000E011A000E021A000E031A800E041A16
:1020A000000E051A000E061A000E071A800E081AF6
:1020B0000550015C06500258075003580850045858
:1020C000D8B065EF10F067EF10F06AEF10F0D8901D
:1020D0006BEF10F0D8801200AECF37F00D0E37182E
:1020E000D8A475EF10F077EF10F0C6EF10F00A0EDD
:1020F000A0EC14F0800E1A6E000E1B6E000E1C6E0B
:1021000010EC03F01AC033F01BC034F01CC035F0E3
:102110001DC036F033C001F034C002F035C003F00A
:1021200036C004F0CD0E056ECC0E066ECC0E076EDA
:102130003D0E086EC0EC0CF001C033F002C034F06C
:1021400003C035F004C036F0000E056E000E066EBA
:10215000C80E076E420E086E33C001F034C002F0A4
:1021600035C003F036C004F0ABEC0AF001C01AF041
:1021700002C01BF003C01CF004C01DF067EC0FF0A0
:102180001AC04BF01BC04CF0A2EC13F048BED4EFC9
:1021900010F0485007E10A0E475CD8B0D2EF10F0BB
:1021A000D4EF10F0E5EF10F04750800FD96EDA6AE7
:1021B00037C0DFFF474A482A4750800FD96EDA6A96
:1021C000DF6A800E026EDCEC13F012000600D9CF3D
:1021D00039F0DACF3AF0F3CF3BF0F4CF3CF0F6CF62
:1021E0003DF0F7CF3EF0F8CF3FF0F5CF40F0F2A250
:1021F000FCEF10F0FEEF10F02CEF11F01A0E386E1D
:10220000F80EE82EFED7382EFCD700D0494A4A2ACD
:102210004ABE14EF11F0E80E495C030E4A58D8A0EC
:1022200014EF11F016EF11F01AEF11F0000E4A6ED4
:10223000000E496E49C00FF04AC010F061EC12F078
:102240000F0E4914416E426A41C038F00F0E381625
:102250003838F00B8C6EF2929EAA31EF11F033EF0A
:1022600011F040EF11F09E9AABA239EF11F03BEF65
:1022700011F03EEF11F0AB980000AB886CEC10F061
:1022800040C0F5FF3FC0F8FF3EC0F7FF3DC0F6FF7E
:102290003CC0F4FF3BC0F3FF3AC0DAFF39C0D9FFBE
:1022A0004D921100000E0C6E0ABE5BEF11F059EF5B
:1022B00011F061EF11F0096C0A1ED8B00A2A010E64
:1022C0000C6E08BE68EF11F066EF11F06EEF11F0C2
:1022D000076C081ED8B0082A010E0C1A000E0E6EEC
:1022E000000E0D6E09500A10D8B479EF11F07BEF93
:1022F00011F0A3EF11F0010E0B6E83EF11F0D890E7
:1023000009360A360B2A0AAE88EF11F08AEF11F06F
:102310007FEF11F0D8900D360E360950075C0A5049
:102320000858D8A096EF11F098EF11F09DEF11F03A
:102330000950075E0A50085A0D80D8900A320932B7
:102340000B2E8AEF11F00C50D8B4A9EF11F0ABEFBF
:1023500011F0AFEF11F00D6C0E1ED8B00E2A0DC0AB
:1023600007F00EC008F01200000E066E02BEBDEFB0
:1023700011F0BBEF11F0C3EF11F0016C021ED8B0E9
:10238000022A010E066E04BECAEF11F0C8EF11F06A
:10239000CEEF11F0036C041ED8B0042A03500410D1
:1023A000D8B4D5EF11F0D7EF11F0FBEF11F0010E1B
:1023B000056EDFEF11F0D89003360436052A04AE1F
:1023C000E4EF11F0E6EF11F0DBEF11F00350015CE8
:1023D00004500258D8A0EFEF11F0F1EF11F0F5EF33
:1023E00011F00350015E0450025AD89004320332B7
:1023F000052EE6EF11F00650D8B401EF12F003EF0E
:1024000012F007EF12F0016C021ED8B0022A01C0D0
:1024100001F002C002F01200000E0114096E000E5D
:1024200002140A6E800E03140B6E7F0E04140C6EE1
:1024300009500A100B100C10D8A421EF12F023EF52
:1024400012F02BEF12F0000E016E000E026E000E65
:10245000036E000E046E000E0514096E000E0614C5
:102460000A6E800E07140B6E7F0E08140C6E095056
:102470000A100B100C10D8A440EF12F042EF12F02B
:102480004AEF12F0000E056E000E066E000E076E8B
:10249000000E086E055001180FE1065002180CE1FD
:1024A0000750031809E108500418D8B45AEF12F085
:1024B0005CEF12F05FEF12F0D89060EF12F0D8806E
:1024C0001200000E036E030E026E62EC13F00FC0DA
:1024D00007F010C008F0000E0A6E640E096E52EC90
:1024E00011F00750300F116E1150A0EC14F0000ED7
:1024F000046E640E036E0FC001F010C002F0B4EC65
:1025000011F001C007F002C008F0000E0A6E0A0EBA
:10251000096E52EC11F00750300F116E1150A0EC03
:1025200014F00FC001F010C002F0000E046E0A0E8D
:10253000036EB4EC11F00150300F116E1150A0EC8D
:1025400014F012005FEC14F0300E89EC14F0940ECD
:102550000001AE6FC6EC14F00001AF6F0FEC14F089
:102560006D0E00019419D8A4B8EF12F0BAEF12F072
:10257000C9EF12F0310E9519D8A4C1EF12F0C3EFD4
:1025800012F0C9EF12F0CAEC14F083EC13F0A7EFCD
:1025900012F06D0E9419D8A4D0EF12F0D2EF12F011
:1025A000A7EF12F0320E9519D8A4D9EF12F0DBEF95
:1025B00012F0A7EF12F0C9EC14F0C5EF12F050EFD3
:1025C00000F0000E096E000E0A6E000E0B6E000E7B
:1025D0000C6E01A0EEEF12F0F0EF12F0F8EF12F037
:1025E0000550092606500A2207500B2208500C22DB
:1025F000D8900536063607360836D89004320332AE
:10260000023201320150021003100410D8A40BEF63
:1026100013F00DEF13F0E9EF12F009C001F00AC05A
:1026200002F00BC003F00CC004F01200010E076EA4
:1026300001C003F0D00E0326090E036422EF13F04D
:1026400024EF13F03DEF13F0200E0110036E000E87
:102650000210046E9F0E0324056EFF0E0420066E0A
:10266000065009E1060E055CD8A039EF13F03BEFE8
:1026700013F03DEF13F0000E076E07C001F0026A81
:102680001200900EF66E290EF76E000EF86E09001D
:10269000F5CF4BF00900F5CF4CF000EE80F0280E9E
:1026A000EE6AE806FDE100EE43F0080EEE6AE80689
:1026B000FDE14D904D92000EF86E060EF76E000192
:1026C000A2EF12F0000E066E000E056E73EF13F00F
:1026D000080EA0EC14F0200EA0EC14F0080EA0ECF4
:1026E00014F0054A062A0250055C0650800A046E62
:1026F0000350800A0458D8A080EF13F082EF13F043
:1027000068EF13F01200000E0001AD6F000EAC6F09
:10271000AC51800FD96EDA6ADF6AAC4BAD2BADBF1E
:102720009BEF13F0AD5109E10A0EAC5DD8A09BEF11
:1027300013F09DEF13F088EF13F0000E486E000EBB
:10274000476E1200000E026E000E016E0150800FE7
:10275000D96EDA6ADF6A014A022A02BEB9EF13F0C3
:10276000025009E10A0E015CD8A0B9EF13F0BBEFEB
:1027700013F0A6EF13F0000E486E000E476E120025
:102780000150021003100410D8B4C9EF13F0CBEFBE
:1027900013F0D3EF13F0000E011A000E021A000E10
:1027A000031A800E041A01C001F002C002F003C037
:1027B00003F004C004F01200000E046E000E036E5D
:1027C000EBEF13F002500324D96EDA6ADF50A0EC6D
:1027D00014F0034A042A02500324D96EDA6ADF5047
:1027E000D8A4F5EF13F0F7EF13F0E2EF13F01200B7
:1027F00001C003F09F0E03261A0E036002EF14F0CF
:1028000004EF14F00AEF14F05F0E0114016E026A77
:102810000EEF14F001C001F002C002F01200AEC0D1
:10282000B0F00001AF2BAF05D96EDA6AB02BB0055E
:10283000E16EE26ADFCFE7FFE750D8A422EF14F0A1
:1028400024EF14F011EF14F01200D00E0124036EE7
:10285000FF0E0220046E04500AE10A0E035CD8A0A9
:1028600034EF14F037EF14F0010E38EF14F0000ECF
:10287000016E026A120001500302F3CF05F0F4CF9B
:1028800006F001500402F350062602500302F350F2
:10289000062605C001F006C002F01200FF0E056E0C
:1028A000FF0E066EFF0E076E7F0E086E05C001F06C
:1028B00006C002F007C003F008C004F01200C1EC2B
:1028C00014F0ABEC14F07CEC14F0B4EC14F06EECFF
:1028D00014F0BBEC14F095EC14F01200948C948E70
:1028E000AC98B896AC94330EAF6EAB8EAC8AAB8816
:1028F0009D8A9F8A9E9A1200030ECA12CA9CCA9A87
:10290000CA98CA963E0ECB6E9E929D829F92CA84B2
:1029100012000001AC6FACA290EF14F092EF14F033
:102920008BEF14F0ACC0ADFF120092680E0EC16EBA
:10293000C08E070EC012000EC46E000EC36E1200D1
:10294000016EACA2A6EF14F0A8EF14F0A1EF14F002
:1029500001C0ADFF1200D3508F0B6009D36ED3506E
:10296000FC0B0109D36E1200D08EF28EF28CF2882D
:10297000F19CF29212009494090EBD6E9E949F8475
:1029800012000F0E956E000E8C6E1200800E12005B
:06299000E8031200120032
:020000040020DA
:08000000FFFFFFFFFFFFFFFF00
:020000040030CA
:0E000000FF881F00FF8181FF0FC00FE00F403F
:00000001FF
