:020000040000FA
:100000000F0EC16E816A9380896A926A000E006E3B
:1000100081A001D0FDD7460E156E140E146E00009F
:100020000000000000000000142EF9D7152EF5D7AF
:1000300081A0F1D7002A030E0060006A00D00050B2
:10004000000E006201D008D0010E006201D007D07E
:10005000020E0062DDD766D0000E896ED9D781A06E
:10006000DAD7010E896E460E156E6F0E146E000003
:100070000000000000000000142EF9D7152EF5D75F
:1000800081A0C9D7460E156E6F0E146E00000000D9
:10009000000000000000142EF9D7152EF5D781A01E
:1000A000BAD7020E896E460E156E6F0E146E0000E2
:1000B0000000000000000000142EF9D7152EF5D71F
:1000C00081A0A9D7460E156E6F0E146E00000000B9
:1000D000000000000000142EF9D7152EF5D781A0DE
:1000E0009AD7040E896E460E156E6F0E146E0000C0
:1000F0000000000000000000142EF9D7152EF5D7DF
:1001000081A089D7460E156E6F0E146E0000000098
:10011000000000000000142EF9D7152EF5D781A09D
:100120007AD79DD781A077D7010E896E8C0E156E78
:100130006F0E146E00000000000000000000142E7E
:10014000F9D7152EF5D781A066D78C0E156E6F0ED8
:10015000146E00000000000000000000142EF9D70B
:10016000152EF5D781A057D7030E896E8C0E156E0C
:100170006F0E146E00000000000000000000142E3E
:10018000F9D7152EF5D781A046D78C0E156E6F0EB8
:10019000146E00000000000000000000142EF9D7CB
:1001A000152EF5D781A037D7040E896E81A033D7DD
:1001B0008C0E156E6F0E146E000000000000000023
:1001C0000000142EF9D7152EF5D7000E896E81A0E8
:1001D00022D78C0E156E6F0E146E0000000000000A
:1001E00000000000142EF9D7152EF5D781A013D7E3
:1001F0008C0E156E6F0E146E0000000000000000E3
:100200000000142EF9D7152EF5D7040E896E81A0A3
:1002100002D78C0E156E6F0E146E000000000000E9
:1002200000000000142EF9D7152EF5D7000E896EA8
:1002300081A0F1D68C0E156E6F0E146E00000000BA
:10024000000000000000142EF9D7152EF5D781A06C
:10025000E2D68C0E156E6F0E146E000000000000CA
:1002600000000000142EF9D7152EF5D7040E896E64
:1002700081A0D1D68C0E156E6F0E146E000000009A
:10028000000000000000142EF9D7152EF5D781A02C
:04029000C2D648D7B3
:02029400000068
:020000040030CA
:0100010008F6
:010003001EDE
:010006008178
:00000001FF
