:020000040000FA
:04000000FEEF3FF0E0
:107B9200000EF86E000122EF3EF0949C948E200EAF
:107BA200AC6E900EAB6E190EAF6E1200016E9EA8F7
:107BB200DDEF3DF0DFEF3DF0D8EF3DF001C0ADFF6E
:107BC2001200016E956A81808182819601C083FFD5
:107BD200819400D0818481861200016E956A819021
:107BE2008182819601C083FF819400D08184818645
:107BF20012009568819081848196819200D083CF12
:107C020001F08182818601501200160EE2EC3DF0F5
:107C1200030E026E980EE82EFED7022EFCD7FAEC67
:107C22003DF01200036E150EE2EC3DF00350EEEC57
:107C32003DF00D0E026EFC0EE82EFED7022EFCD792
:107C42001200620ED36ECEEC3DF06F0E026E7F0E0E
:107C5200036E47EC3EF0CCEC3EF08BEC3EF02EEFA8
:107C62003EF0FEEF3FF08198070E016E7D0EE82E8A
:107C7200FED7012EFCD7000081881A0E016EF80E85
:107C8200E82EFED7012EFCD700D0120053EF3EF0B3
:107C920002C0F6FF03C0F7FF0800F550D7EC3DF035
:107CA200024A032A02C0F6FF03C0F7FF0800F5509C
:107CB2000009D8A45FEF3EF061EF3EF049EF3EF0DD
:107CC2001200036E6F0E0324F66EF76A7E0EF72221
:107CD2000800F5CF04F001C002F0220E0216D8B45B
:107CE20075EF3EF077EF3EF089EF3EF0600E0464F0
:107CF2007DEF3EF07FEF3EF089EF3EF07B0E0460B9
:107D020085EF3EF087EF3EF089EF3EF0200E045EF5
:107D1200045012004A0EE2EC3DF0810EEEEC3DF012
:107D2200220EE2EC3DF0FAEC3DF00D6E140E0D1851
:107D3200D8A49EEF3EF0A0EF3EF0CBEF3EF0280E2F
:107D4200E2EC3DF0FAEC3DF00E6E106AB1EF3EF05F
:107D52001050050FD96EDA6AFAEC3DF0DF6E102A88
:107D62000E50105CD8A0B8EF3EF0BAEF3EF0A9EF8B
:107D72003EF005C001F0075062EC3EF00F6E0F506E
:107D8200D8B4C6EF3EF0C8EF3EF0CBEF3EF00F5056
:107D9200D7EC3DF0120034EC3EF0A60E026E7F0EE0
:107DA200036E47EC3EF0050E13EC3EF006EC3EF09F
:107DB200066ECD0E026E7F0E036E47EC3EF0063865
:107DC2000F0B300FD7EC3DF006500F0B300FD7ECF6
:107DD2003DF0A30E026E7F0E036E47EC3EF0150ED1
:107DE2000618D8A4F7EF3EF0F9EF3EF001EF3FF0AE
:107DF2008E0E026E7F0E036E47EC3EF00FEF3FF0E9
:107E0200020E056E040E046EBA0EE82EFED7042E84
:107E1200FCD7052EFAD700D0D7EF3EF0EC0E026E5B
:107E22007F0E036E47EC3EF0070E13EC3EF01A0E87
:107E3200046EF80EE82EFED7042EFCD700D0DD0E1D
:107E4200026E7F0E036E47EC3EF0060E13EC3EF020
:107E52000D0E046EFC0EE82EFED7042EFCD7BB0ED0
:107E6200026E7F0E036E47EC3EF01200000000002F
:107E7200006162636465666768696A6B6C6D6E6FE8
:107E8200707172737475767778797A3132333435EA
:107E920036373839300000000000000000000000D2
:107EA20000000000000000000000000000000000D0
:107EB20000000000000000000000000000000000C0
:107EC20000000000000000000000000000000000B0
:107ED20000000000000000000000000000000000A0
:107EE2000000000000000000000000000000000090
:107EF2000000000000000000000000000000000080
:107F0200000000000000000000000000000000006F
:107F1200000000000000000000000000000000005F
:107F2200000000000000000000000000000000004F
:107F3200000000000000000000000000000000003F
:107F4200000000000000000000000000000000002F
:107F5200000000000000000000000000000000001F
:107F62000000000000000000000000000043483351
:107F7200373520506172616C6C656C204B6579629B
:107F82006F61726420546573740D0A005553422068
:107F920044657669636520436F6E6E6563746564DC
:107FA200210D0A0053657474696E67206D6F6465F4
:107FB2002030352E2E2E0D0A0055534220486F7365
:107FC200742052656164792E0D0A00544553545F42
:107FD200434F4E4E454354203D200053746172740A
:107FE20020534F462E2E2E0D0A00526573657420C3
:0E7FF2006275732E2E2E0D0A0000C9EF3DF0B1
:020000040020DA
:08000000FFFFFFFFFFFFFFFF00
:020000040030CA
:0E000000FF081F1EFF8181FF0FC00FE00F40A1
:00000001FF
