:020000040000FA
:04000000D8EF00F045
:0600080074820FED14F0FC
:100018007480D8CFA8F0E8CFA9F0E0CFAAF09EA2CC
:1000280018EF00F01AEF00F01BEF00F09E929EA070
:1000380020EF00F022EF00F035EF00F09E90FB0E6D
:10004800D76E1E0ED66E010E0001B525A66F000EE6
:10005800B621A76F0F0EA615B56FB66BB539F00BA5
:100068008C6EF2A43AEF00F03CEF00F03DEF00F0A8
:10007800F2949EAC42EF00F044EF00F0D0EF00F0B5
:100088009E9CC4500001A66FC350AF6FA6C0B0F0CD
:10009800040EB719B811D8A454EF00F056EF00F0C9
:1000A800AEEF00F0AF51B35D806FB051B459816FBE
:1000B800E7EC16F0000181BF6BEF00F0815109E118
:1000C8000B0E805DD8A06BEF00F06DEF00F0AEEF87
:1000D80000F0AFC080F0B0C081F0000E81BFFF0E0D
:1000E800826F836FB40E846F000E856F000E866F6B
:1000F800000E876F30EC15F080C08CF081C08DF059
:1001080082C08EF083C08FF0FF0E0001906F030E47
:10011800916F000E926F000E936F25EC13F08CC058
:10012800ABF08DC0ACF08EC0ADF08FC0AEF0ABC000
:10013800CDF0ACC0CEF00001A60ECD27FF0ECE2329
:10014800CDC0A0F0CEC0A1F089EC14F0AFC0B3F0E0
:10015800B0C0B4F0040E0001B719B811D8B4B7EFA5
:1001680000F0B9EF00F0CFEF00F0AFC0A6F0B0C0DC
:10017800A7F0A735A733A633A735A733A633A651CB
:10018800BB6EAFC0A6F0030EA617A63BBA50A619C1
:10019800CF0BA619BA6EC282AAC0E0FFA9C0E8FFB9
:0C01A800A8C0D8FF749010009BEF15F069
:10060000003031323334353637383941424344458E
:100610004600494E46494E49545900696E66696E16
:1006200069747900646567726565006D6F746F72D7
:10063000004E414E00696E66006E616E0000000E55
:10064000256E000E246E1B501C10D8B42AEF03F048
:100650002CEF03F035EF03F01BC0D9FF1CC0DAFF0D
:100660001AC0DFFF35EF03F01A2A1A50D96EDA6A82
:10067000200EDE18D8B43FEF03F042EF03F0010E76
:1006800043EF03F0000E2C6E2D6A2C502D10D8A4D1
:100690004CEF03F04EEF03F034EF03F01A50D96E35
:1006A000DA6ADF501E6E1E502C6E2D6A2CC01FF0B1
:1006B000F70E1F26040E1F6460EF03F062EF03F0D5
:1006C00034EF03F0296A2D0E2C182D10D8A46BEFEF
:1006D00003F06DEF03F072EF03F0010E296E1A2A9A
:1006E0007EEF03F02B0E2C182D10D8A47AEF03F018
:1006F0007CEF03F07EEF03F06FEF03F0326A82EFDE
:1007000003F0322A1A503224D96EDA6ADF50D8B494
:100710008CEF03F08EEF03F0B8EF03F01A503224A1
:10072000D96EDA6ADF501E6E32501B0F1F6E1FC06B
:10073000F6FF0800F5501E18D8B4A1EF03F0A3EFA0
:1007400003F081EF03F01A503224D96EDA6ADF50D9
:100750001E6E3250120F1F6E1FC0F6FF0800F550BC
:100760001E18D8B4B6EF03F0B8EF03F081EF03F032
:10077000020E3264BEEF03F0C0EF03F0E5EF03F0CA
:10078000000E2E6E000E2F6E800E306E7F0E316EBC
:100790001B501C10D8B4CFEF03F0D1EF03F075EF6E
:1007A0000AF0080E3218D8B4D8EF03F0DAEF03F0ED
:1007B000DCEF03F0030E326E1A5032241BC0D9FF57
:1007C0001CC0DAFFDF6E75EF0AF0326AE9EF03F062
:1007D000322A1A503224D96EDA6ADF50D8B4F3EFD5
:1007E00003F0F5EF03F01FEF04F01A503224D96E36
:1007F000DA6ADF501E6E3250390F1F6E1FC0F6FFCF
:100800000800F5501E18D8B408EF04F00AEF04F001
:10081000E8EF03F01A503224D96EDA6ADF501E6E08
:100820003250310F1F6E1FC0F6FF0800F5501E1822
:10083000D8B41DEF04F01FEF04F0E8EF03F0030E4F
:100840003218D8A426EF04F028EF04F07FEF04F06C
:10085000340E016EACEC17F001C02EF002C02FF088
:1008600003C030F004C031F01B501C10D8B43BEF73
:1008700004F03DEF04F075EF0AF032501A261A50DA
:10088000D96EDA6A280EDE18D8A449EF04F04BEFCF
:1008900004F077EF04F0326A4FEF04F0322A1A5076
:1008A0003224D96EDA6ADF50D8B459EF04F05BEF26
:1008B00004F068EF04F01A503224D96EDA6A290E77
:1008C000DE18D8A466EF04F068EF04F04EEF04F0F1
:1008D0001A503224D96EDA6A290EDE18D8A473EFC2
:1008E00004F075EF04F077EF04F032281A261BC0ED
:1008F000D9FF1CC0DAFF1AC0DFFF75EF0AF0000E47
:100900002D6E000E2C6E000E2E6E000E2F6E000E41
:10091000306E000E316E266A276A000E2B6E000EB6
:100920002A6E326A95EF04F0322A1A503224D96EB8
:10093000DA6A300EDE18D8B4A0EF04F0A2EF04F0AB
:1009400094EF04F03250D8B4A8EF04F0AAEF04F00A
:1009500005EF08F01A503224D96EDA6A780EDE18E4
:10096000D8B4B5EF04F0B7EF04F0C4EF04F01A50B8
:100970003224D96EDA6A580EDE18D8A4C2EF04F019
:10098000C4EF04F005EF08F01A503224D96EDA6A89
:10099000010ED926DF501E6E1E50016E026AFBEC5E
:1009A00015F001500210D8A4D8EF04F0DAEF04F0EB
:1009B000EBEF04F01A503224D96EDA6A010ED92610
:1009C0002E0EDE18D8B4E7EF04F0E9EF04F0EBEFF9
:1009D00004F030EF07F032C026F0322A1A503224E9
:1009E000D96EDA6A300EDE18D8B4F9EF04F0FBEFF6
:1009F00004F0EDEF04F01A503224D96EDA6A700E6A
:100A0000DE18D8B406EF05F008EF05F05EEF06F04B
:100A10001A503224D96EDA6A500EDE18D8A413EFB9
:100A200005F015EF05F017EF05F05EEF06F01A5030
:100A30003224D96EDA6A2E0EDE18D8A422EF05F021
:100A400024EF05F02AEF05F0298832C027F0322A7A
:100A50005EEF06F01A503224D96EDA6ADF501E6E4D
:100A60001E50016E026AFBEC15F001500210D8B462
:100A70003CEF05F03EEF05F030EF07F0286A1A5022
:100A80003224D96EDA6ADF501E6E1E50016E026A81
:100A90005FEC17F001500210D8B451EF05F053EF9E
:100AA00005F05CEF05F01A503224D96EDA6ADF5097
:100AB000D00F286E6AEF05F01A503224D96EDA6A28
:100AC000DF501E6E1E50016E026A1BEC17F00150C3
:100AD000C90F286E2DBE78EF05F02D5007E1080EE6
:100AE0002C5CD8B076EF05F078EF05F097EF05F0C5
:100AF0002C5007081E6ED8901E36D8901E3628C07F
:100B00001FF0206A216A226A1E2A8CEF05F0D89015
:100B10001F362036213622361E2E87EF05F01F5055
:100B20002E1220502F1221503012225031122C4AF6
:100B30002D2A040E2A26000E2B22322AFBEF04F067
:100B40001A503224D96EDA6A300EDE18D8A4ABEF10
:100B500005F0ADEF05F0BCEF05F02C502D10D8A43A
:100B6000B4EF05F0B6EF05F0BCEF05F0FC0E2A2659
:100B7000FF0E2B225DEF06F01A503224D96EDA6A8E
:100B8000DF501E6E1E50016E026AFBEC15F0015024
:100B90000210D8B4CEEF05F0D0EF05F02DEF06F03F
:100BA000286A1A503224D96EDA6ADF501E6E1E503F
:100BB000016E026A5FEC17F001500210D8B4E3EF47
:100BC00005F0E5EF05F0EEEF05F01A503224D96E8E
:100BD000DA6ADF50D00F286EFCEF05F01A5032248D
:100BE000D96EDA6ADF501E6E1E50016E026A1BEC6F
:100BF00017F00150C90F286E2DBE0AEF06F02D50D8
:100C000007E1080E2C5CD8B008EF06F00AEF06F0FA
:100C100029EF06F02C5007081E6ED8901E36D8908B
:100C20001E3628C01FF0206A216A226A1E2A1EEF83
:100C300006F0D8901F362036213622361E2E19EFA8
:100C400006F01F502E1220502F1221503012225029
:100C500031122C4A2D2A5DEF06F032501E6E1F6AAB
:100C60002750206E216A010E2026000E21221E50E0
:100C7000201807E11F502118D8A441EF06F043EFD8
:100C800006F065EF06F027501E6E1F6A2650206E94
:100C9000216A010E2026000E21221E50201807E195
:100CA0001F502118D8A457EF06F059EF06F065EF52
:100CB00006F026C032F030EF07F0322A29B863EF91
:100CC00006F065EF06F0A0EF05F032501A26326A02
:100CD0001A50D96EDA6A700EDE18D8B472EF06F0C8
:100CE00074EF06F082EF06F01A50D96EDA6A500EF1
:100CF000DE18D8B47EEF06F080EF06F082EF06F043
:100D000030EF07F0322A1A50D96EDA6A010ED9266E
:100D10002B0EDE18D8A48FEF06F091EF06F094EFBB
:100D200006F0322AA4EF06F01A50D96EDA6A010EE4
:100D3000D9262D0EDE18D8A4A0EF06F0A2EF06F0FB
:100D4000A4EF06F02986322A1A503224D96EDA6AC4
:100D5000DF501E6E1E50016E026A5FEC17F00150EC
:100D60000210D8A4B6EF06F0B8EF06F0BBEF06F01D
:100D7000326A30EF07F032501A26326AC1EF06F0BD
:100D8000322A1A503224D96EDA6A300EDE18D8B4FC
:100D9000CCEF06F0CEEF06F0C0EF06F0000E2D6EA1
:100DA000000E2C6EFBEF06F03250D8B4DAEF06F0EE
:100DB000DCEF06F0EAEF06F02CC001F02DC002F0E7
:100DC000000E046E0A0E036E88EC17F001C02CF0C2
:100DD00002C02DF01A503224D96EDA6ADF501E6E2E
:100DE000D00E1E241F6E206AFF0E20221F502C26BC
:100DF00020502D22322A1A503224D96EDA6ADF505E
:100E00001E6E1E50016E026A5FEC17F00150021058
:100E1000D8A40DEF07F00FEF07F0D4EF06F0325033
:100E2000D8A415EF07F017EF07F021EF07F0000E39
:100E30001A6E000E1B6E000E1C6E000E1D6EABEFC8
:100E40000AF029A626EF07F028EF07F02CEF07F0AD
:100E50002C6C2D1ED8B02D2A2C502A262D502B223A
:100E60001B501C10D8B437EF07F039EF07F040EFF4
:100E700007F01A5032241BC0D9FF1CC0DAFFDF6E06
:100E80002E502F1030103110D8A449EF07F04BEF3F
:100E900007F055EF07F0000E1A6E000E1B6E000EE5
:100EA0001C6E000E1D6EABEF0AF0FF0E2E141E6EB0
:100EB000000E2F141F6E000E3014206E000E311421
:100EC000216E215020101F1009E1810E1E5CD8A058
:100ED0006CEF07F06EEF07F080EF07F0000E2E26A4
:100EE000010E2F22000E3022000E312280EF07F07B
:100EF000D8902E362F36303631362A06D8A02B061B
:100F000031AE85EF07F087EF07F078EF07F02BAEF3
:100F100093EF07F0830E2A5CFF0E2B58D8B093EFA7
:100F200007F095EF07F0A1EF07F0FF0E2B6E810E93
:100F30002A6E000E2E6E000E2F6E000E306E000E0A
:100F4000316E810E2A1808E12B28D8B4AAEF07F0D9
:100F5000ACEF07F0B4EF07F0D8902E362F363036CE
:100F600031362A06D8A02B062BBEC0EF07F02B5037
:100F700009E1800E2A5CD8A0C0EF07F0C2EF07F0AD
:100F8000D4EF07F0000E2E6E000E2F6E000E306EA6
:100F9000000E316E000E2B6E800E2A6E000E256E36
:100FA000220E246E75EF0AF0090E1E6ED8903132B3
:100FB00030322F322E321E2ED6EF07F0FF0E2E16B5
:100FC000FF0E2F167F0E3016000E31167F0E2A24CC
:100FD0001E6E000E2B201F6EFF0E1E14206E216A47
:100FE000226A236A170ED8902036213622362336FD
:100FF000E82EF3EF07F020502E1221502F1222502E
:1010000030122350311275EF0AF029B80AEF08F0B8
:101010000CEF08F01CEF08F01A50D96EDA6A2E0EA9
:10102000DE18D8A416EF08F018EF08F01CEF08F04F
:1010300029881A2A05EF08F01A50D96EDA6ADF50AB
:101040001E6E1E50016E026A5FEC17F00150021016
:10105000D8A42DEF08F02FEF08F031EF08F07DEF66
:1010600008F02982090E2C182D10D8B43AEF08F098
:101070003CEF08F071EF08F029A841EF08F043EFCA
:1010800008F046EF08F02A06D8A02B062C4A2D2A95
:101090002EC001F02FC002F030C003F031C004F0C8
:1010A0000A0E056E000E066E000E076E000E086E2C
:1010B00066EC15F001C02EF002C02FF003C030F036
:1010C00004C031F01A50D96EDA6ADF501E6ED00EAD
:1010D0001E261E502E26000E2F22302231227AEF9D
:1010E00008F029B876EF08F078EF08F07AEF08F00A
:1010F0002A4A2B2A1A2A05EF08F0000E2D6E000E40
:101100002C6E1A50D96EDA6A650EDE18D8B48BEFE1
:1011100008F08DEF08F099EF08F01A50D96EDA6AEE
:10112000450EDE18D8A497EF08F099EF08F013EFFA
:1011300009F01A2A1A50D96EDA6A2D0EDE18D8A4D0
:10114000A4EF08F0A6EF08F0AAEF08F029861A2A03
:10115000B7EF08F01A50D96EDA6A2B0EDE18D8A451
:10116000B4EF08F0B6EF08F0B7EF08F01A2A1A50FB
:10117000D96EDA6A300EDE18D8B4C1EF08F0C3EFCA
:1011800008F0B6EF08F0286ADEEF08F01A50D96EC2
:10119000DA6ADF501E6ED00E1E260A0E2C02F3CF26
:1011A0001FF0F4CF20F02D02F35020261E501F24F4
:1011B0002C6E000E20202D6E1A2A282A1A50D96E65
:1011C000DA6ADF501E6E1E50016E026A5FEC17F085
:1011D00001500210D8A4EFEF08F0F1EF08F0C6EFCD
:1011E00008F02850D8A4F7EF08F0F9EF08F008EF5E
:1011F00009F01A50D96EDA6AFF0ED926300EDE18C1
:10120000D8B405EF09F007EF09F008EF09F01A0666
:1012100029A60DEF09F00FEF09F013EF09F02C6C80
:101220002D1ED8B02D2A2C502A262D502B221B5093
:101230001C10D8B41EEF09F020EF09F02DEF09F0D3
:1012400029A225EF09F027EF09F02DEF09F01BC0C7
:10125000D9FF1CC0DAFF1AC0DFFF2EC001F02FC07B
:1012600002F030C003F031C004F0000E87EC0EF045
:1012700001C02EF002C02FF003C030F004C031F0E6
:101280002EC001F02FC002F030C003F031C004F0D6
:10129000000E056E000E066E000E076E000E086E44
:1012A0007DEC12F0D8A057EF09F059EF09F063EF89
:1012B00009F0000E1A6E000E1B6E000E1C6E000E62
:1012C0001D6EABEF0AF02BBE6AEF09F068EF09F074
:1012D000F8EF09F02A6C2B1ED8B02B2A8EEF09F0FC
:1012E0002EC001F02FC002F030C003F031C004F076
:1012F000F90E056E020E066E150E076E500E086E84
:10130000BFEC0CF001C02EF002C02FF003C030F093
:1013100004C031F0F60E2A26FF0E2B222BBE9CEFC6
:1013200009F02B5007E10A0E2A5CD8B09AEF09F0B9
:101330009CEF09F070EF09F0BBEF09F02EC001F04F
:101340002FC002F030C003F031C004F0000E056E73
:10135000000E066E200E076E410E086EBFEC0CF0FC
:1013600001C02EF002C02FF003C030F004C031F0F5
:101370002A06D8A02B062A502B10D8A4C2EF09F0B9
:10138000C4EF09F09EEF09F02EC001F02FC002F06B
:1013900030C003F031C004F0000E056E000E066E82
:1013A000800E076E000E086EBBEC10F0D8B0DBEFBD
:1013B00009F0DDEF09F075EF0AF029A0E2EF09F07E
:1013C000E4EF09F0EEEF09F0000E1A6E000E1B6E4E
:1013D000800E1C6E800E1D6EABEF0AF0000E1A6EB2
:1013E000000E1B6E800E1C6E000E1D6EABEF0AF021
:1013F0002BBE03EF0AF02B5008E12A04D8A003EF1C
:101400000AF005EF0AF075EF0AF025EF0AF02EC09A
:1014100001F02FC002F030C003F031C004F0F90E2B
:10142000056E020E066E150E076E500E086EACECC1
:101430000AF001C02EF002C02FF003C030F004C04B
:1014400031F0F60E2A26FF0E2B222B5007E10A0E52
:101450002A5CD8B02EEF0AF030EF0AF007EF0AF05E
:101460004FEF0AF02EC001F02FC002F030C003F0A1
:1014700031C004F0000E056E000E066E200E076EE1
:10148000410E086EACEC0AF001C02EF002C02FF045
:1014900003C030F004C031F02A06D8A02B062A5031
:1014A0002B10D8A456EF0AF058EF0AF032EF0AF0EA
:1014B000FF0E016EFF0E026E7F0E036E7F0E046E36
:1014C0002EC005F02FC006F030C007F031C008F084
:1014D000BBEC10F0D8B06FEF0AF071EF0AF075EFC7
:1014E0000AF0000E256E220E246E24502510D8B46A
:1014F0007CEF0AF07EEF0AF08AEF0AF024C04AF08F
:1015000025C04BF0000E2E6E000E2F6E800E306E3A
:101510007F0E316E29A08FEF0AF091EF0AF0A3EF52
:101520000AF02EC001F02FC002F030C003F031C02D
:1015300004F0CBEC16F001C02EF002C02FF003C077
:1015400030F004C031F02EC01AF02FC01BF030C0B4
:101550001CF031C01DF012000450800B0D6E0450C1
:101560000424136E03AEB7EF0AF0B9EF0AF0BAEF36
:101570000AF013801350D8B4C0EF0AF0C2EF0AF09B
:10158000D5EF0AF01328D8A4C8EF0AF0CAEF0AF082
:10159000D2EF0AF0000E016E000E026E000E036E16
:1015A000000E046E038EDDEF0AF0000E016E000ED9
:1015B000026E000E036E000E046E0850800B0D1AB2
:1015C00008500824126E07AEE8EF0AF0EAEF0AF0BE
:1015D000EBEF0AF012801250D8B4F1EF0AF0F3EFFB
:1015E0000AF006EF0BF01228D8A4F9EF0AF0FBEF8F
:1015F0000AF003EF0BF0000E056E000E066E000EF3
:10160000076E000E086E078E0EEF0BF0000E056ED3
:10161000000E066E000E076E000E086E1250D8B453
:1016200014EF0BF016EF0BF01EEF0BF01350D8A4D5
:101630001CEF0BF01EEF0BF028EF0BF0000E016E0D
:10164000000E026E000E036E000E046EBEEF0CF074
:1016500007500102F3CF18F0F4CF19F018500E6EB6
:101660000F6A106A116A1950146E156A166A176AA1
:1016700006500202F3CF18F0F4CF19F018500E26DE
:10168000000E0F221022112219501426000E1522CE
:101690001622172205500302F3CF18F0F4CF19F0E9
:1016A00018500E26000E0F22102211221950142657
:1016B000000E15221622172210C011F00FC010F0D4
:1016C0000EC00FF00E6A05500202F3CF18F0F4CFEF
:1016D00019F018500E2619500F22000E1022000E7D
:1016E000112206500102F3CF18F0F4CF19F0185070
:1016F0000E2619500F22000E1022000E112210C0CB
:1017000011F00FC010F00EC00FF00E6A055001026C
:10171000F3CF18F0F4CF19F018500E2619500F22FD
:10172000000E1022000E112207500202F3CF18F013
:10173000F4CF19F01850142619501522000E162255
:10174000000E172206500302F3CF18F0F4CF19F061
:101750001850142619501522000E1622000E1722BA
:1017600007500302F3CF18F0F4CF19F01850096EA8
:1017700019500A6E0B6A0C6A0BC00CF00AC00BF011
:1017800009C00AF0096A095014260A5015220B50A4
:1017900016220C5017220EC009F00FC00AF010C01C
:1017A0000BF011C00CF0190EDBEF0BF0D8900C32DF
:1017B0000B320A320932E82ED6EF0BF0095014260C
:1017C0000A5015220B5016220C50172210C011F08F
:1017D0000FC010F00EC00FF00E6A125013C009F0C7
:1017E0000A6A0926000E0A22820E0924186EFF0ECC
:1017F0000A20196E11EF0CF0D890143615361636F3
:10180000173611AE06EF0CF008EF0CF009EF0CF0F4
:101810001480D8900E360F36103611361806D8A020
:10182000190616AE16EF0CF018EF0CF0FCEF0BF0EB
:10183000126A11AE1EEF0CF020EF0CF044EF0CF02A
:10184000FF0E0E14096EFF0E0F140A6EFF0E101419
:101850000B6E7F0E11140C6E09500A100B100C1039
:10186000D8B435EF0CF037EF0CF03BEF0CF0010E75
:10187000126E44EF0CF014A040EF0CF042EF0CF0AD
:1018800044EF0CF037EF0CF01250D8B44AEF0CF0E4
:101890004CEF0CF070EF0CF0010E1426000E152228
:1018A0001622172217A057EF0CF059EF0CF070EF2B
:1018B0000CF014C009F015C00AF016C00BF017C0E8
:1018C0000CF00C340C320B320A32093209C014F01D
:1018D0000AC015F00BC016F00CC017F0184A192AF0
:1018E00019BE7BEF0CF0195008E11828D8A07BEF47
:1018F0000CF07DEF0CF087EF0CF0000E146E000E74
:10190000156E800E166E7F0E176EB4EF0CF019BEBA
:1019100094EF0CF0195006E11804D8B092EF0CF0D7
:1019200094EF0CF09FEF0CF0000E146E000E156E8D
:10193000000E166E000E176E0D6AB4EF0CF018C094
:1019400013F0FF0E1416FF0E15167F0E1616000E5E
:10195000171613A0AEEF0CF0B0EF0CF0B1EF0CF0D7
:10196000168ED8901330176E0D50171214C001F058
:1019700015C002F016C003F017C004F012000450A6
:10198000800B116E04500424186E03AECAEF0CF0E5
:10199000CCEF0CF0CDEF0CF018801850D8B4D3EF8A
:1019A0000CF0D5EF0CF0E9EF0CF01828D8A4DBEF21
:1019B0000CF0DDEF0CF0E5EF0CF0000E016E000E08
:1019C000026E000E036E000E046E038E046AF1EFC9
:1019D0000CF0000E016E000E026E000E036E000E83
:1019E000046E0850800B111A08500824196E07AEB7
:1019F000FCEF0CF0FEEF0CF0FFEF0CF0198019502B
:101A0000D8B405EF0DF007EF0DF01BEF0DF019281E
:101A1000D8A40DEF0DF00FEF0DF017EF0DF0000E45
:101A2000056E000E066E000E076E000E086E078E25
:101A3000086A23EF0DF0000E056E000E066E000E14
:101A4000076E000E086E0550061007100810D8A487
:101A50002CEF0DF02EEF0DF046EF0DF0000E016EA5
:101A6000000E026E000E036E000E046E800E031256
:101A70007F0E04121150041201C001F002C002F0E6
:101A800003C003F004C004F086EF0EF01850D8A491
:101A90004CEF0DF04EEF0DF058EF0DF0000E016E13
:101AA000000E026E000E036E000E046E86EF0EF046
:101AB000195018C009F00A6A095E000E0A5A7F0E12
:101AC0000924126E000E0A20136E01C00DF002C030
:101AD0000EF003C00FF004C010F0000E016E000EF7
:101AE000026E000E036E000E046E000E146E000EE9
:101AF000156E000E166E000E176E196AB8EF0DF017
:101B00001950D8B486EF0DF088EF0DF09FEF0DF06F
:101B1000D8900D360E360F361036D8900136023674
:101B20000336043617AE97EF0DF099EF0DF09AEFEC
:101B30000DF00180D890143615361636173605503C
:101B40000D5C06500E5807500F5808501058D8A07A
:101B5000ACEF0DF0AEEF0DF0B7EF0DF0178C0550B8
:101B60000D5E06500E5A07500F5A0850105A192A87
:101B7000190E1964BEEF0DF0C0EF0DF080EF0DF0FF
:101B80000D500E100F101010D8B4C9EF0DF0CBEFA0
:101B90000DF0E3EF0DF01480E3EF0DF0D890013677
:101BA00002360336043617AED8EF0DF0DAEF0DF03B
:101BB000DBEF0DF00180D890143615361636173647
:101BC0001206D8A0130603AEE8EF0DF0EAEF0DF011
:101BD000CEEF0DF0196A17AEF0EF0DF0F2EF0DF049
:101BE00016EF0EF0FF0E1414096EFF0E15140A6E98
:101BF000FF0E16140B6E7F0E17140C6E09500A1090
:101C00000B100C10D8B407EF0EF009EF0EF00DEF2B
:101C10000EF0010E196E16EF0EF001A012EF0EF08D
:101C200014EF0EF016EF0EF009EF0EF01950D8B4C5
:101C30001CEF0EF01EEF0EF042EF0EF0010E01262B
:101C4000000E02220322042204A029EF0EF02BEF43
:101C50000EF042EF0EF001C009F002C00AF003C01E
:101C60000BF004C00CF00C340C320B320A32093287
:101C700009C001F00AC002F00BC003F00CC004F070
:101C8000124A132A13BE4DEF0EF0135008E112282A
:101C9000D8A04DEF0EF04FEF0EF05AEF0EF0000E01
:101CA000136E1268000E016E000E026E000E036EBF
:101CB000000E046E13BE67EF0EF0135006E112041F
:101CC000D8B065EF0EF067EF0EF074EF0EF0000E77
:101CD000136E000E126E000E016E000E026E000EEC
:101CE000036E000E046E116A12C018F018A07BEF8C
:101CF0000EF07DEF0EF080EF0EF0038E81EF0EF010
:101D0000039ED8901830046E3AEF0DF01200096E61
:101D10000950D8B48EEF0EF090EF0EF0B2EF0EF047
:101D200004BE97EF0EF095EF0EF0B2EF0EF001C08B
:101D300005F002C006F003C007F004C008F0051E5D
:101D4000061E071E081E052A000E0622072208226C
:101D500005C00BF006C00CF007C00DF008C00EF077
:101D6000BAEF0EF001C00BF002C00CF003C00DF092
:101D700004C00EF00150021003100410D8A4C3EFE9
:101D80000EF0C5EF0EF0CFEF0EF0000E016E000E5C
:101D9000026E000E036E000E046E60EF0FF0960EE2
:101DA0000A6ED9EF0EF00A2AD8900E320D320C329C
:101DB0000B32000E0B14056E000E0C14066E000E96
:101DC0000D14076EFE0E0E14086E05500610071057
:101DD0000810D8A4EEEF0EF0F0EF0EF0D3EF0EF0F7
:101DE000FEEF0EF00A2A010E0B26000E0C220D2229
:101DF0000E22D8900E320D320C320B32000E0B1424
:101E0000056E000E0C14066E000E0D14076EFF0E0C
:101E10000E14086E0550061007100810D8A413EF12
:101E20000FF015EF0FF0F2EF0EF01DEF0FF00A06B6
:101E3000D8900B360C360D360E360DBE22EF0FF055
:101E400024EF0FF02CEF0FF0020E0A602AEF0FF0D4
:101E50002CEF0FF017EF0FF00AB031EF0FF033EF68
:101E60000FF034EF0FF00D9ED8900A320AC005F043
:101E7000066A076A086A05C008F0076A066A056A02
:101E800005500B1206500C1207500D1208500E127E
:101E90000950D8B44EEF0FF050EF0FF058EF0FF09D
:101EA00004BE57EF0FF055EF0FF058EF0FF00E8E06
:101EB0000BC001F00CC002F00DC003F00EC004F026
:101EC0001200AECF41F04150E2EC17F00D0E411878
:101ED000D8A46DEF0FF06FEF0FF00CEF10F00A0EBB
:101EE000E2EC17F0560E016E32EC17F001C03DF037
:101EF00002C03EF00001B751B811D8A482EF0FF034
:101F000084EF0FF0AEEF0FF0560E016E2B0E026E47
:101F1000CCEC15F001500210D8A491EF0FF093EF24
:101F20000FF09AEF0FF0000E0001B86F040EB76FBC
:101F3000AEEF0FF0560E016E240E026ECCEC15F0D3
:101F400001500210D8A4A7EF0FF0A9EF0FF0AEEFE9
:101F50000FF0000E0001B86F050EB76F040E000100
:101F6000B719B811D8B4B7EF0FF0B9EF0FF0C3EF4E
:101F70000FF0050EB719B811D8A4C1EF0FF0C3EFD9
:101F80000FF0DEEF0FF0650E5618D8A4CAEF0FF071
:101F9000CCEF0FF0DEEF0FF03EBEDAEF0FF03E5069
:101FA00007E1030E3D5CD8B0D8EF0FF0DAEF0FF089
:101FB000DEEF0FF0000EB86F000EB76F050EB71909
:101FC000B811D8A4E6EF0FF0E8EF0FF008EF10F02B
:101FD000000E1B6E000E1C6E560E1A6E1FEC03F0E8
:101FE0001AC033F01BC034F01CC035F01DC036F0F1
:101FF00038EC10F033C03FF034C040F03FC0CDF0BB
:1020000040C0CEF0CDC021F0CEC022F0C2EC14F022
:10201000ADEC16F037EF10F07F0E4118D8A413EF97
:1020200010F015EF10F01FEF10F04C06D8A04D0681
:102030004C50560FD96EDA6ADF6A37EF10F04DBE9A
:102040002DEF10F04D5007E1120E4C5CD8B02BEF85
:1020500010F02DEF10F037EF10F04C50560FD96EF6
:10206000DA6A41C0DFFF4C4A4D2A18EF10F0120027
:10207000353436343C6E3C50D8A441EF10F043EF79
:1020800010F04DEF10F0000E336E000E346E000EA7
:10209000356E000E366EBAEF10F033C037F034C034
:1020A00038F035C039F036C03AF0200E5DEF10F050
:1020B000D8903A32393238323732E82E58EF10F0B1
:1020C00037503B6E358EFF0E3316FF0E3416FF0E63
:1020D0003516000E3616960E3C5E3CBE74EF10F0C0
:1020E00072EF10F08AEF10F03C50800A970FD8B0D2
:1020F0007CEF10F07EEF10F080EF10F043EF10F067
:10210000D89036323532343233323C3E80EF10F0E4
:10211000A2EF10F01F0E3C6490EF10F092EF10F061
:102120009AEF10F043EF10F0D8903336343635364E
:1021300036363C063C50D8A4A0EF10F0A2EF10F0C9
:1021400094EF10F03B50D8B4A8EF10F0AAEF10F0C5
:10215000B2EF10F0361E351E341E336C000E3422E2
:102160003522362233C033F034C034F035C035F078
:1021700036C036F01200000E0114096E000E021473
:102180000A6E800E03140B6E7F0E04140C6E095041
:102190000A100B100C10D8A4D0EF10F0D2EF10F0F2
:1021A000DAEF10F0000E016E000E026E000E036EEC
:1021B000000E046E000E0514096E000E06140A6E61
:1021C000800E07140B6E7F0E08140C6E09500A1057
:1021D0000B100C10D8A4EFEF10F0F1EF10F0F9EFA6
:1021E00010F0000E056E000E066E000E076E000E5B
:1021F000086E04AEFEEF10F000EF11F009EF11F0E1
:10220000016C021ED8B0022A031ED8B0032A800E29
:10221000045608AE0EEF11F010EF11F019EF11F0A7
:10222000056C061ED8B0062A071ED8B0072A800EF5
:102230000856000E011A000E021A000E031A800E34
:10224000041A000E051A000E061A000E071A800E58
:10225000081A0550015C06500258075003580850F0
:102260000458D8B036EF11F038EF11F03BEF11F011
:10227000D8903CEF11F0D88012000101196FB40E14
:102280000101196546EF11F048EF11F04AEF11F026
:10229000B40E196F1951006F016B026B036B190EAD
:1022A000046F000E056F000E066F000E076FFAEC4C
:1022B00014F000C10CF101C10DF102C10EF103C116
:1022C0000FF1090E0101106F000E116F000E126F59
:1022D000000E136FD2EC12F07D0E01010C251A6F67
:1022E000000E0D211B6F000E0E211C6F000E0F2122
:1022F0001D6F1D511C110BE1720E1A5D020E1B5950
:10230000D8A085EF11F087EF11F08FEF11F0710E6B
:102310001A6F020E1B6F000E1C6F000E1D6F1D51F9
:102320001C111B1107E17D0E1A5DD8B09AEF11F058
:102330009CEF11F0A4EF11F07D0E1A6F000E1B6FD1
:10234000000E1C6F000E1D6F1AC1B1F01BC1B2F060
:10235000120000019B6FB40E00019B65B2EF11F0FB
:10236000B4EF11F0B6EF11F0B40E9B6F9B51806F7C
:10237000816B826B836B190E846F000E856F000E6C
:10238000866F000E876F30EC15F080C08CF081C036
:102390008DF082C08EF083C08FF0090E0001906F27
:1023A000000E916F000E926F000E936F25EC13F0EC
:1023B0007D0E00018C259C6F000E8D219D6F000EFF
:1023C0008E219E6F000E8F219F6F9F519E110BE1FA
:1023D000720E9C5D020E9D59D8A0F1EF11F0F3EF43
:1023E00011F0FBEF11F0710E9C6F020E9D6F000E4D
:1023F0009E6F000E9F6F9F519E119D1107E17D0EF4
:102400009C5DD8B006EF12F008EF12F010EF12F05A
:102410007D0E9C6F000E9D6F000E9E6F000E9F6FD5
:102420009CC099F09DC09AF012001C6EB40E1C6402
:102430001CEF12F01EEF12F020EF12F0B40E1C6E23
:102440001C50016E026A036A046A190E056E000EC2
:10245000066E000E076E000E086E66EC15F001C0E9
:102460000DF002C00EF003C00FF004C010F0090E12
:10247000116E000E126E000E136E000E146E78ECCC
:1024800013F07D0E0D241D6E000E0E201E6E000E2C
:102490000F201F6E000E1020206E20501F100BE129
:1024A000720E1D5C020E1E58D8A059EF12F05BEFA1
:1024B00012F063EF12F0710E1D6E020E1E6E000E12
:1024C0001F6E000E206E20501F101E1007E17D0EA3
:1024D0001D5CD8B06EEF12F070EF12F078EF12F0D2
:1024E0007D0E1D6E000E1E6E000E1F6E000E206E05
:1024F0001DC01AF01EC01BF01200000E0114096E60
:10250000000E02140A6E800E03140B6E7F0E04146C
:102510000C6E09500A100B100C10D8A492EF12F098
:1025200094EF12F09CEF12F0000E016E000E026E9E
:10253000000E036E000E046E000E0514096E000EF0
:1025400006140A6E800E07140B6E7F0E08140C6EB4
:1025500009500A100B100C10D8A4B1EF12F0B3EF11
:1025600012F0BBEF12F0000E056E000E066E000EAC
:10257000076E000E086E055001180FE10650021894
:102580000CE10750031809E108500418D8B4CBEF48
:1025900012F0CDEF12F0D0EF12F0D890D1EF12F090
:1025A000D8801200000E0101146F000E156F000E8E
:1025B000166F000E176F1051111112111311D8B4AC
:1025C000E4EF12F0E6EF12F01CEF13F0010E186FBB
:1025D000F0EF12F0D8901037113712371337182B4D
:1025E00013AFF5EF12F0F7EF12F0EAEF12F0D89018
:1025F000143715371637173710510C5D11510D5917
:1026000012510E5913510F59D8A009EF13F00BEFC7
:1026100013F014EF13F010510C5F11510D5B1251B8
:102620000E5B13510F5B1481D890133312331133A7
:102630001033182FF7EF12F014C10CF115C10DF182
:1026400016C10EF117C10FF11200000E0001946FB8
:10265000000E956F000E966F000E976F90519111BE
:1026600092119311D8B437EF13F039EF13F06FEFE5
:1026700013F0010E986F43EF13F0D8909037913715
:1026800092379337982B93AF48EF13F04AEF13F03C
:102690003DEF13F0D8909437953796379737905190
:1026A0008C5D91518D5992518E5993518F59D8A06B
:1026B0005CEF13F05EEF13F067EF13F090518C5F57
:1026C00091518D5B92518E5B93518F5B9481D89029
:1026D0009333923391339033982F4AEF13F094C091
:1026E0008CF095C08DF096C08EF097C08FF01200E0
:1026F000000E156E000E166E000E176E000E186E90
:102700001150121013101410D8B489EF13F08BEF7E
:1027100013F0C1EF13F0010E196E95EF13F0D8907E
:102720001136123613361436192A14AE9AEF13F0F6
:102730009CEF13F08FEF13F0D8901536163617363E
:10274000183611500D5C12500E5813500F5814507B
:102750001058D8A0AEEF13F0B0EF13F0B9EF13F0AC
:1027600011500D5E12500E5A13500F5A1450105A39
:102770001580D8901432133212321132192E9CEF78
:1027800013F015C00DF016C00EF017C00FF018C0F2
:1027900010F0120002EC17F0000E01011F6F5A0E2C
:1027A0001E6F50EC14F0F00E8C6EB90E0101006F2C
:1027B00014EC18F00101016F49EC17F06D0E0001E7
:1027C000B919D8A4E6EF13F0E8EF13F0F7EF13F020
:1027D000310EBA19D8A4EFEF13F0F1EF13F0F7EFC1
:1027E00013F018EC18F08EEC16F0D5EF13F06D0E18
:1027F000B919D8A4FEEF13F000EF14F0D5EF13F0E1
:10280000320EBA19D8A407EF14F009EF14F0D5EF7F
:1028100013F017EC18F0F3EF13F0D8EF00F0060008
:10282000D9CF42F0DACF43F0F3CF44F0F4CF45F004
:10283000F6CF46F0F7CF47F0F8CF48F0F5CF49F0A4
:10284000F2A225EF14F027EF14F028EF14F0F29223
:102850009EAA2DEF14F02FEF14F03EEF14F09E9A85
:10286000ABA235EF14F037EF14F03AEF14F0AB9859
:102870000000AB88100E8C6E61EC0FF049C0F5FFC4
:1028800048C0F8FF47C0F7FF46C0F6FF45C0F4FF59
:1028900044C0F3FF43C0DAFF42C0D9FF7492110075
:1028A00001011FAF5DEF14F0A60E1E5DFF0E1F5954
:1028B000D8B05DEF14F05FEF14F063EF14F0FF0E8B
:1028C0001F6FA60E1E6F1FBF6FEF14F01F5109E19F
:1028D0005B0E1E5DD8A06FEF14F071EF14F075EF72
:1028E00014F0000E1F6F5A0E1E6F5A0E1E25206F19
:1028F000000E1F21216F20513DEC11F0B1C022F1DB
:10290000B2C023F122C1B1F023C1B2F025EC16F020
:1029100012000001A1AF96EF14F0A60EA05DFF0E0D
:10292000A159D8B096EF14F098EF14F09CEF14F082
:10293000FF0EA16FA60EA06FA1BFA8EF14F0A151CA
:1029400009E15B0EA05DD8A0A8EF14F0AAEF14F087
:10295000AEEF14F0000EA16F5A0EA06F5A0EA02514
:10296000A26F000EA121A36FA251A9EC11F099C092
:10297000A4F09AC0A5F0A4C080F0A5C081F049ECF5
:1029800016F0120022AECEEF14F0A60E215CFF0E60
:102990002258D8B0CEEF14F0D0EF14F0D4EF14F0EA
:1029A000FF0E226EA60E216E22BEE0EF14F0225022
:1029B00009E15B0E215CD8A0E0EF14F0E2EF14F027
:1029C000E6EF14F0000E226E5A0E216E5A0E2124EC
:1029D000236E000E2220246E235015EC12F01AC034
:1029E00025F01BC026F025C001F026C002F06CECDB
:1029F00016F01200000E0101086F000E096F000EA4
:102A00000A6F000E0B6F00A108EF15F00AEF15F02A
:102A100012EF15F0045108270551092306510A2326
:102A200007510B23D8900437053706370737D8905E
:102A3000033302330133003300510111021103113A
:102A4000D8A425EF15F027EF15F003EF15F008C116
:102A500000F109C101F10AC102F10BC103F1120039
:102A6000000E0001886F000E896F000E8A6F000E45
:102A70008B6F80A13EEF15F040EF15F048EF15F099
:102A8000845188278551892386518A2387518B2336
:102A9000D8908437853786378737D8908333823309
:102AA000813380338051811182118311D8A45BEF6F
:102AB00015F05DEF15F039EF15F088C080F089C092
:102AC00081F08AC082F08BC083F01200000E096E84
:102AD000000E0A6E000E0B6E000E0C6E01A073EF5E
:102AE00015F075EF15F07DEF15F00550092606502D
:102AF0000A2207500B2208500C22D89005360636C1
:102B000007360836D89004320332023201320150BF
:102B1000021003100410D8A490EF15F092EF15F0F6
:102B20006EEF15F009C001F00AC002F00BC003F00F
:102B30000CC004F012002C0EF66E300EF76E000E74
:102B4000F86E0900F5CFCDF00900F5CFCEF0160EE6
:102B5000F66E300EF76E000EF86E00EE6AF010EEB4
:102B60000AF00900F5CFEEFFE550E150FAE100EE82
:102B7000B3F01A0EEE6AE806FDE100EE4AF0200E10
:102B8000EE6AE806FDE174907492000EF86E060E8F
:102B9000F76E0001CAEF13F0D0EF15F0012A022AF8
:102BA0000150D96EDA6ADF50036E02C0F6FF0800EA
:102BB000F5500318D8A4DFEF15F0E1EF15F0ECEFB6
:102BC00015F00150D96EDA6ADF50D8A4EAEF15F09B
:102BD000ECEF15F0CEEF15F00150D96EDA6ADF5048
:102BE000036E02C0F6FF0800F550035C016E026A36
:102BF000D8A002061200010E076E01C003F0D00E2D
:102C00000326090E036407EF16F009EF16F021EF13
:102C100016F0200E0110036E000E0210046E9F0EBF
:102C20000324056EFF0E0420066E065009E1060E11
:102C3000055CD8A01EEF16F020EF16F021EF16F07D
:102C4000076A07C001F0026A1200040E0001B25DBB
:102C5000D8A02DEF16F02FEF16F032EF16F0030E7E
:102C6000B26FB169B1C000F1B2C001F10101D890F9
:102C700001330033D890013300330051BE6ECF0EC4
:102C8000BD16B1C000F1030E00170039F00BBD12E4
:102C90001200040E0001815DD8A051EF16F053EF31
:102CA00016F056EF16F0030E816F806980C082F037
:102CB00081C083F0D89083338233D89083338233BA
:102CC0008251BE6ECF0EBD1680C082F0030E8217F9
:102CD0008239F00BBD121200040E025CD8A073EF13
:102CE00016F075EF16F078EF16F0030E026E01681D
:102CF00001C003F002C004F0D89004320332D8902F
:102D0000043203320350BE6ECF0EBD1601C003F075
:102D1000030E03160338F00BBD121200000E000163
:102D2000B26F000EB16FB151560FD96EDA6ADF6A19
:102D3000B14BB22BB2BFA6EF16F0B25109E10A0EA9
:102D4000B15DD8A0A6EF16F0A8EF16F093EF16F03D
:102D5000000E4D6E000E4C6E1200000E026E000E44
:102D6000016E0150560FD96EDA6ADF6A014A022AF3
:102D700002BEC4EF16F0025009E10A0E015CD8A0B1
:102D8000C4EF16F0C6EF16F0B1EF16F0000E4D6E60
:102D9000000E4C6E12000150021003100410D8B443
:102DA000D4EF16F0D6EF16F0DEEF16F0000E011A93
:102DB000000E021A000E031A800E041A01C001F060
:102DC00002C002F003C003F004C004F012000001CE
:102DD00081BFEDEF16F0EFEF16F0F5EF16F080C0C3
:102DE00080F081C081F001EF17F080C082F081C0D7
:102DF00083F0821F831F824B832B82C080F083C0AD
:102E000081F01200C150F00B0E09C16E10EC18F0E9
:102E1000EDEC17F0FFEC17F0CBEC17F0D7EC17F058
:102E200075EC17F0BDEC17F0F6EC17F005EC18F0A8
:102E30009BEC17F0120001C003F09F0E03261A0E40
:102E4000036025EF17F027EF17F02DEF17F05F0E57
:102E50000114016E026A31EF17F001C001F002C0E7
:102E600002F0120001C003F037EF17F0012A015001
:102E7000D96EDA6ADF50D8A440EF17F042EF17F0AE
:102E800036EF17F00350015C016E026A01BE0206C4
:102E9000120000C102F10101012B0105D96EDA6AAD
:102EA000022B0205E16EE26ADFCFE7FFE750D8A40C
:102EB0005CEF17F05EEF17F04BEF17F01200D00E3B
:102EC0000124036EFF0E0220046E04500AE10A0E74
:102ED000035CD8A06EEF17F071EF17F0010E72EFE0
:102EE00017F0000E016E026A1200D08EF28EF28C84
:102EF000F288F19CF2929E9C9D8C9F9CF294F28AA7
:102F0000F1949E909D809F909E929D829F92120030
:102F100001500302F3CF05F0F4CF06F00150040294
:102F2000F350062602500302F350062605C001F0B6
:102F300006C002F0120092680E0EC16EC08E070E1F
:102F4000C012C46AC36A010EC26E0E0EC16EAA0E12
:102F5000C06E9E9CC2821200FF0E056EFF0E066EB2
:102F6000FF0E076E7F0E086E05C001F006C002F06E
:102F700007C003F008C004F01200948C948EAC9843
:102F8000B896AC94330EAF6EAB8EAC8AAB889D8A8C
:102F90009F8A9E9A1200CD8ECD92CD50CF0B2009E4
:102FA000CD6EFB0ECF6E1E0ECE6ECD801200D59C68
:102FB000D59AD596070ED512FC0ED76E2F0ED66E6B
:102FC000D58E1200016EACA2E8EF17F0EAEF17F011
:102FD000E3EF17F001C0ADFF1200D3508F0B600973
:102FE000D36ED350FC0B0109D36E120094945D0E86
:102FF000BE6E3C0EBD6E9E949F84CA841200CB6848
:10300000CA6A030ECA6ECC6A120094920C0EBA6E93
:10301000A190A28012007030100040600100FFFFFC
:103020000F0E956E8C6A1200560E12005A00120096
:0230300012008C
:020000040020DA
:08000000FFFFFFFFFFFFFFFF00
:020000040030CA
:0E000000FF881F00FF8181FF0FC00FE00F403F
:00000001FF
