:020000040000FA
:0400000007EF00F016
:0A000800338201ED03F0A8EF03F0CE
:1006000000000600D9CF25F0DACF26F0F3CF27F08F
:10061000F4CF28F0C4CF29F02A6A2D50295C2B6E24
:100620002E502A582C6E2BC021F02CC022F0C3EC87
:1006300003F022BE25EF03F0225009E1060E215CF3
:10064000D8A025EF03F027EF03F07AEF03F02CBEDC
:1006500032EF03F02C5008E12B04D8A032EF03F066
:1006600034EF03F056EF03F03150020DF350110F49
:10067000D96EDA6ADECF21F0DDCF22F0EDEC03F0A7
:10068000314A322A32BE4EEF03F0325009E1080EF1
:10069000315CD8A04EEF03F050EF03F076EF03F09B
:1006A000000E326E000E316E76EF03F02F50020D09
:1006B000F350010FD96EDA6ADECF21F0DDCF22F0E0
:1006C000EDEC03F02F4A302A30BE70EF03F03050CB
:1006D00009E1080E2F5CD8A070EF03F072EF03F071
:1006E00076EF03F0000E306E000E2F6E29C02DF055
:1006F0002AC02EF09E9CC28228C0F4FF27C0F3FFC0
:1007000026C0DAFF25C0D9FF33921100D3508F0BDA
:100710004009D36E9280C198C19AC150F00B0E0966
:10072000C16EC30EC216F80EC016C050C70B080922
:10073000C06EC280C09E9D8C9E9CF28CF28EC28246
:100740000F0E956E000E8C6EA4EF03F007EF00F015
:10075000BA0EF66E070EF76E000EF86E00EE01F0A0
:1007600010EE20F00900F5CFEEFFE550E150FAE180
:10077000326A316A306A2F6A2E6A2D6A3390339258
:10078000000186EF03F022BEC8EF03F0CAEF03F0CA
:10079000D0EF03F021C021F022C022F0DCEF03F003
:1007A00021C023F022C024F0231E241E234A242A21
:1007B00023C021F024C022F0120001000300050034
:1007C000070009000B000D000F00000002000400EC
:1007D000060008000A000C000E002138F00B8C6E99
:0207E000120005
:020000040020DA
:08000000FFFFFFFFFFFFFFFF00
:020000040030CA
:0E000000FF081B1EFF8181FF0FC00FE00F40A5
:00000001FF
